{
  "_format": "hh-sol-artifact-1",
  "contractName": "CivicLink",
  "sourceName": "contracts/CivicLink.sol",
  "abi": [
    {
      "inputs": [],
      "stateMutability": "nonpayable",
      "type": "constructor"
    },
    {
      "inputs": [
        {
          "internalType": "address",
          "name": "owner",
          "type": "address"
        }
      ],
      "name": "OwnableInvalidOwner",
      "type": "error"
    },
    {
      "inputs": [
        {
          "internalType": "address",
          "name": "account",
          "type": "address"
        }
      ],
      "name": "OwnableUnauthorizedAccount",
      "type": "error"
    },
    {
      "anonymous": false,
      "inputs": [
        {
          "indexed": true,
          "internalType": "uint256",
          "name": "messageId",
          "type": "uint256"
        },
        {
          "indexed": true,
          "internalType": "address",
          "name": "sender",
          "type": "address"
        },
        {
          "indexed": false,
          "internalType": "uint256",
          "name": "receiverId",
          "type": "uint256"
        }
      ],
      "name": "MessageSent",
      "type": "event"
    },
    {
      "anonymous": false,
      "inputs": [
        {
          "indexed": true,
          "internalType": "uint256",
          "name": "officialId",
          "type": "uint256"
        },
        {
          "indexed": false,
          "internalType": "string",
          "name": "name",
          "type": "string"
        }
      ],
      "name": "OfficialAdded",
      "type": "event"
    },
    {
      "anonymous": false,
      "inputs": [
        {
          "indexed": true,
          "internalType": "address",
          "name": "previousOwner",
          "type": "address"
        },
        {
          "indexed": true,
          "internalType": "address",
          "name": "newOwner",
          "type": "address"
        }
      ],
      "name": "OwnershipTransferred",
      "type": "event"
    },
    {
      "inputs": [
        {
          "components": [
            {
              "internalType": "uint256",
              "name": "id",
              "type": "uint256"
            },
            {
              "internalType": "string",
              "name": "name",
              "type": "string"
            },
            {
              "internalType": "string",
              "name": "role",
              "type": "string"
            },
            {
              "internalType": "string",
              "name": "about",
              "type": "string"
            },
            {
              "internalType": "string",
              "name": "contactEmail",
              "type": "string"
            },
            {
              "internalType": "string",
              "name": "officeLine",
              "type": "string"
            },
            {
              "internalType": "address",
              "name": "walletAddress",
              "type": "address"
            },
            {
              "internalType": "string",
              "name": "imageUrl",
              "type": "string"
            },
            {
              "internalType": "uint256",
              "name": "verifiedAt",
              "type": "uint256"
            },
            {
              "internalType": "string",
              "name": "structureName",
              "type": "string"
            }
          ],
          "internalType": "struct CivicLink.Official",
          "name": "_params",
          "type": "tuple"
        }
      ],
      "name": "addOfficial",
      "outputs": [
        {
          "internalType": "bool",
          "name": "",
          "type": "bool"
        }
      ],
      "stateMutability": "nonpayable",
      "type": "function"
    },
    {
      "inputs": [],
      "name": "getMessageHistory",
      "outputs": [
        {
          "components": [
            {
              "internalType": "uint256",
              "name": "id",
              "type": "uint256"
            },
            {
              "internalType": "address",
              "name": "senderAddress",
              "type": "address"
            },
            {
              "internalType": "uint256",
              "name": "receiverId",
              "type": "uint256"
            },
            {
              "internalType": "string",
              "name": "content",
              "type": "string"
            },
            {
              "internalType": "uint256",
              "name": "timestamp",
              "type": "uint256"
            },
            {
              "internalType": "enum CivicLink.MessageStatus",
              "name": "status",
              "type": "uint8"
            }
          ],
          "internalType": "struct CivicLink.Message[]",
          "name": "history",
          "type": "tuple[]"
        }
      ],
      "stateMutability": "view",
      "type": "function"
    },
    {
      "inputs": [
        {
          "internalType": "uint256",
          "name": "_officialId",
          "type": "uint256"
        }
      ],
      "name": "getOfficialDetails",
      "outputs": [
        {
          "components": [
            {
              "internalType": "uint256",
              "name": "id",
              "type": "uint256"
            },
            {
              "internalType": "string",
              "name": "name",
              "type": "string"
            },
            {
              "internalType": "string",
              "name": "role",
              "type": "string"
            },
            {
              "internalType": "string",
              "name": "about",
              "type": "string"
            },
            {
              "internalType": "string",
              "name": "contactEmail",
              "type": "string"
            },
            {
              "internalType": "string",
              "name": "officeLine",
              "type": "string"
            },
            {
              "internalType": "address",
              "name": "walletAddress",
              "type": "address"
            },
            {
              "internalType": "string",
              "name": "imageUrl",
              "type": "string"
            },
            {
              "internalType": "uint256",
              "name": "verifiedAt",
              "type": "uint256"
            },
            {
              "internalType": "string",
              "name": "structureName",
              "type": "string"
            }
          ],
          "internalType": "struct CivicLink.Official",
          "name": "",
          "type": "tuple"
        }
      ],
      "stateMutability": "view",
      "type": "function"
    },
    {
      "inputs": [
        {
          "internalType": "uint256",
          "name": "_officialId",
          "type": "uint256"
        }
      ],
      "name": "getOfficialMessages",
      "outputs": [
        {
          "components": [
            {
              "internalType": "uint256",
              "name": "id",
              "type": "uint256"
            },
            {
              "internalType": "address",
              "name": "senderAddress",
              "type": "address"
            },
            {
              "internalType": "uint256",
              "name": "receiverId",
              "type": "uint256"
            },
            {
              "internalType": "string",
              "name": "content",
              "type": "string"
            },
            {
              "internalType": "uint256",
              "name": "timestamp",
              "type": "uint256"
            },
            {
              "internalType": "enum CivicLink.MessageStatus",
              "name": "status",
              "type": "uint8"
            }
          ],
          "internalType": "struct CivicLink.Message[]",
          "name": "",
          "type": "tuple[]"
        }
      ],
      "stateMutability": "view",
      "type": "function"
    },
    {
      "inputs": [],
      "name": "getOfficials",
      "outputs": [
        {
          "components": [
            {
              "internalType": "uint256",
              "name": "id",
              "type": "uint256"
            },
            {
              "internalType": "string",
              "name": "name",
              "type": "string"
            },
            {
              "internalType": "string",
              "name": "role",
              "type": "string"
            },
            {
              "internalType": "string",
              "name": "about",
              "type": "string"
            },
            {
              "internalType": "string",
              "name": "contactEmail",
              "type": "string"
            },
            {
              "internalType": "string",
              "name": "officeLine",
              "type": "string"
            },
            {
              "internalType": "address",
              "name": "walletAddress",
              "type": "address"
            },
            {
              "internalType": "string",
              "name": "imageUrl",
              "type": "string"
            },
            {
              "internalType": "uint256",
              "name": "verifiedAt",
              "type": "uint256"
            },
            {
              "internalType": "string",
              "name": "structureName",
              "type": "string"
            }
          ],
          "internalType": "struct CivicLink.Official[]",
          "name": "allOfficials",
          "type": "tuple[]"
        }
      ],
      "stateMutability": "view",
      "type": "function"
    },
    {
      "inputs": [],
      "name": "messageCount",
      "outputs": [
        {
          "internalType": "uint256",
          "name": "",
          "type": "uint256"
        }
      ],
      "stateMutability": "view",
      "type": "function"
    },
    {
      "inputs": [
        {
          "internalType": "uint256",
          "name": "",
          "type": "uint256"
        }
      ],
      "name": "messages",
      "outputs": [
        {
          "internalType": "uint256",
          "name": "id",
          "type": "uint256"
        },
        {
          "internalType": "address",
          "name": "senderAddress",
          "type": "address"
        },
        {
          "internalType": "uint256",
          "name": "receiverId",
          "type": "uint256"
        },
        {
          "internalType": "string",
          "name": "content",
          "type": "string"
        },
        {
          "internalType": "uint256",
          "name": "timestamp",
          "type": "uint256"
        },
        {
          "internalType": "enum CivicLink.MessageStatus",
          "name": "status",
          "type": "uint8"
        }
      ],
      "stateMutability": "view",
      "type": "function"
    },
    {
      "inputs": [],
      "name": "officialCount",
      "outputs": [
        {
          "internalType": "uint256",
          "name": "",
          "type": "uint256"
        }
      ],
      "stateMutability": "view",
      "type": "function"
    },
    {
      "inputs": [
        {
          "internalType": "uint256",
          "name": "",
          "type": "uint256"
        }
      ],
      "name": "officialIds",
      "outputs": [
        {
          "internalType": "uint256",
          "name": "",
          "type": "uint256"
        }
      ],
      "stateMutability": "view",
      "type": "function"
    },
    {
      "inputs": [
        {
          "internalType": "uint256",
          "name": "",
          "type": "uint256"
        }
      ],
      "name": "officials",
      "outputs": [
        {
          "internalType": "uint256",
          "name": "id",
          "type": "uint256"
        },
        {
          "internalType": "string",
          "name": "name",
          "type": "string"
        },
        {
          "internalType": "string",
          "name": "role",
          "type": "string"
        },
        {
          "internalType": "string",
          "name": "about",
          "type": "string"
        },
        {
          "internalType": "string",
          "name": "contactEmail",
          "type": "string"
        },
        {
          "internalType": "string",
          "name": "officeLine",
          "type": "string"
        },
        {
          "internalType": "address",
          "name": "walletAddress",
          "type": "address"
        },
        {
          "internalType": "string",
          "name": "imageUrl",
          "type": "string"
        },
        {
          "internalType": "uint256",
          "name": "verifiedAt",
          "type": "uint256"
        },
        {
          "internalType": "string",
          "name": "structureName",
          "type": "string"
        }
      ],
      "stateMutability": "view",
      "type": "function"
    },
    {
      "inputs": [],
      "name": "owner",
      "outputs": [
        {
          "internalType": "address",
          "name": "",
          "type": "address"
        }
      ],
      "stateMutability": "view",
      "type": "function"
    },
    {
      "inputs": [],
      "name": "renounceOwnership",
      "outputs": [],
      "stateMutability": "nonpayable",
      "type": "function"
    },
    {
      "inputs": [
        {
          "internalType": "string",
          "name": "_keyword",
          "type": "string"
        }
      ],
      "name": "searchOfficials",
      "outputs": [
        {
          "components": [
            {
              "internalType": "uint256",
              "name": "id",
              "type": "uint256"
            },
            {
              "internalType": "string",
              "name": "name",
              "type": "string"
            },
            {
              "internalType": "string",
              "name": "role",
              "type": "string"
            },
            {
              "internalType": "string",
              "name": "about",
              "type": "string"
            },
            {
              "internalType": "string",
              "name": "contactEmail",
              "type": "string"
            },
            {
              "internalType": "string",
              "name": "officeLine",
              "type": "string"
            },
            {
              "internalType": "address",
              "name": "walletAddress",
              "type": "address"
            },
            {
              "internalType": "string",
              "name": "imageUrl",
              "type": "string"
            },
            {
              "internalType": "uint256",
              "name": "verifiedAt",
              "type": "uint256"
            },
            {
              "internalType": "string",
              "name": "structureName",
              "type": "string"
            }
          ],
          "internalType": "struct CivicLink.Official[]",
          "name": "",
          "type": "tuple[]"
        }
      ],
      "stateMutability": "view",
      "type": "function"
    },
    {
      "inputs": [
        {
          "internalType": "uint256",
          "name": "_receiverId",
          "type": "uint256"
        },
        {
          "internalType": "string",
          "name": "_content",
          "type": "string"
        }
      ],
      "name": "sendMessage",
      "outputs": [
        {
          "internalType": "bool",
          "name": "success",
          "type": "bool"
        }
      ],
      "stateMutability": "nonpayable",
      "type": "function"
    },
    {
      "inputs": [
        {
          "internalType": "address",
          "name": "newOwner",
          "type": "address"
        }
      ],
      "name": "transferOwnership",
      "outputs": [],
      "stateMutability": "nonpayable",
      "type": "function"
    }
  ],
  "bytecode": "0x608080604052346075573315605f5760008054336001600160a01b0319821681178355916001600160a01b03909116907f8be0079c531659141344cd1fd0a4f28419497f9722a3daafe3b4186f6b6457e09080a36120a3908161007b8239f35b631e4fbdf760e01b600052600060045260246000fd5b600080fdfe60a0604052600436101561001257600080fd5b60003560e01c80630d80fefd14611762578063260f613714610cf25780633dbcc8d114610cd457806345b91ded14610cb657806358bc733114610c1d578063663b653d14610b0b578063715018a614610a8d57806375abf685146109c25780638da5cb5b1461098e57806397ad6afd1461085d57806399e410d814610710578063aae8b592146103d7578063b2823487146101d5578063c2e43fe61461019d5763f2fde38b146100c157600080fd5b346101985760206003193601126101985760043573ffffffffffffffffffffffffffffffffffffffff8116809103610198576100fb611f1c565b80156101695773ffffffffffffffffffffffffffffffffffffffff600054827fffffffffffffffffffffffff0000000000000000000000000000000000000000821617600055167f8be0079c531659141344cd1fd0a4f28419497f9722a3daafe3b4186f6b6457e0600080a3005b7f1e4fbdf700000000000000000000000000000000000000000000000000000000600052600060045260246000fd5b600080fd5b3461019857602060031936011261019857600435600454811015610198576101c6602091611c0b565b90549060031b1c604051908152f35b346101985760206003193601126101985760043567ffffffffffffffff811161019857610206903690600401611bdd565b60045461021281611dd0565b92600092835b83811061027157858561022a81611dd0565b9160005b82811061024757604051806102438682611a88565b0390f35b8061025460019284611e1f565b5161025f8287611e1f565b5261026a8186611e1f565b500161022e565b61027a81611c0b565b90549060031b1c600052600360205260406000206040519061029b8261184c565b805482526102ab600182016118a8565b6020830190815261035e61034360096102c6600286016118a8565b94604087019586526102da600382016118a8565b60608801526102eb600482016118a8565b60808801526102fc600582016118a8565b60a088015273ffffffffffffffffffffffffffffffffffffffff60068201541660c088015261032d600782016118a8565b60e08801526008810154610100880152016118a8565b9161012085019283525161035836888a611cfc565b90611f7c565b9182156103be575b5081156103a7575b5061037d575b50600101610218565b856103a09161038f600194988a611e1f565b5261039a8189611e1f565b50611c6d565b9490610374565b6103b8915051610358368688611cfc565b8861036e565b6103d091925051610358368789611cfc565b9089610366565b346101985760406003193601126101985760043560243567ffffffffffffffff81116101985761040b903690600401611bdd565b919081151580610704575b61041f90611e33565b61042a600254611c6d565b90816002556040519061043c82611869565b828252610459602083019133835260408401968688523691611cfc565b946060830195865273ffffffffffffffffffffffffffffffffffffffff608084019242845260a0850195600087526000526006602052604060002094518555511673ffffffffffffffffffffffffffffffffffffffff6001850191167fffffffffffffffffffffffff000000000000000000000000000000000000000082541617905551600283015560038201945194855167ffffffffffffffff81116106d55761050482546117f9565b601f811161068d575b506020601f82116001146106235781906005969798600092610618575b50506000198260011b9260031b1c19161790555b5160048201550190519060028210156105e9576105af9160409160009160ff7fffffffffffffffffffffffffffffffffffffffffffffffffffffffffffffff008354169116179055338152600560205261059d82822060025490611d43565b83815260076020522060025490611d43565b6002546040519182527f5d0e140b7cef2ea5088380639c54b5d796f25498bf81fb82f87069a07a8f652b60203393a3602060405160018152f35b7f4e487b7100000000000000000000000000000000000000000000000000000000600052602160045260246000fd5b01519050888061052a565b601f1982169783600052816000209860005b81811061067557509160059798999184600195941061065c575b505050811b01905561053e565b015160001960f88460031b161c1916905588808061064f565b838301518b556001909a019960209384019301610635565b826000526020600020601f830160051c810191602084106106cb575b601f0160051c01905b8181106106bf575061050d565b600081556001016106b2565b90915081906106a9565b7f4e487b7100000000000000000000000000000000000000000000000000000000600052604160045260246000fd5b50600154821115610416565b346101985760206003193601126101985760043580151580610851575b61073690611e33565b600052600760205260406000206040518082602082945493848152019060005260206000209260005b81811061083857505061077492500382611885565b61077e8151611e98565b9060005b815181101561082a578061079860019284611e1f565b516000526006602052604060002061080e60ff6005604051936107ba85611869565b8054855273ffffffffffffffffffffffffffffffffffffffff87820154166020860152600281015460408601526107f3600382016118a8565b60608601526004810154608086015201541660a08301611f10565b6108188286611e1f565b526108238185611e1f565b5001610782565b604051806102438582611b06565b845483526001948501948694506020909301920161075f565b5060015481111561072d565b34610198576020600319360112610198576004356000526003602052604060002080546001820161088d906118a8565b9161089a600282016118a8565b906108a7600382016118a8565b6108b3600483016118a8565b6108bf600584016118a8565b600684015473ffffffffffffffffffffffffffffffffffffffff16916108e7600786016118a8565b936008860154956009016108fa906118a8565b96604051998a998a5260208a0161014090526101408a0161091a9161196a565b89810360408b015261092b9161196a565b88810360608a015261093c9161196a565b878103608089015261094d9161196a565b86810360a088015261095e9161196a565b9060c086015284810360e08601526109759161196a565b906101008401528281036101208401526102439161196a565b3461019857600060031936011261019857602073ffffffffffffffffffffffffffffffffffffffff60005416604051908152f35b346101985760006003193601126101985733600052600560205260406000206040518082602082945493848152019060005260206000209260005b818110610a74575050610a1292500382611885565b610a1c8151611e98565b9060005b815181101561082a5780610a3660019284611e1f565b5160005260066020526040600020610a5860ff6005604051936107ba85611869565b610a628286611e1f565b52610a6d8185611e1f565b5001610a20565b84548352600194850194869450602090930192016109fd565b3461019857600060031936011261019857610aa6611f1c565b600073ffffffffffffffffffffffffffffffffffffffff81547fffffffffffffffffffffffff000000000000000000000000000000000000000081168355167f8be0079c531659141344cd1fd0a4f28419497f9722a3daafe3b4186f6b6457e08280a3005b3461019857602060031936011261019857600435610b27611d83565b5080151580610c11575b610b3a90611e33565b60005260036020526102436040600020610bf7600960405192610b5c8461184c565b80548452610b6c600182016118a8565b6020850152610b7d600282016118a8565b6040850152610b8e600382016118a8565b6060850152610b9f600482016118a8565b6080850152610bb0600582016118a8565b60a085015273ffffffffffffffffffffffffffffffffffffffff60068201541660c0850152610be1600782016118a8565b60e08501526008810154610100850152016118a8565b6101208201526040519182916020835260208301906119b8565b50600154811115610b31565b3461019857600060031936011261019857600454610c3a81611dd0565b9060005b818110610c5357604051806102438582611a88565b80610c5f600192611c0b565b90549060031b1c60005260036020526040600020610c94600960405192610c858461184c565b80548452610b6c8682016118a8565b610120820152610ca48286611e1f565b52610caf8185611e1f565b5001610c3e565b34610198576000600319360112610198576020600154604051908152f35b34610198576000600319360112610198576020600254604051908152f35b346101985760206003193601126101985760043567ffffffffffffffff811161019857610140600319823603011261019857610d2c611f1c565b610d37600154611c6d565b80600155610d4b6024830183600401611cab565b9060805291610d606044820182600401611cab565b9390610d726064840184600401611cab565b610d826084860186600401611cab565b610d9560a4889493940188600401611cab565b929060c48901359573ffffffffffffffffffffffffffffffffffffffff8716809703610198578a91610dcd60e48c0160048d01611cab565b979092610de16101248e0160048f01611cab565b9b909f6040519d8e97610df38961184c565b88523660805191610e0392611cfc565b966020019687523690610e1592611cfc565b9560408d019687523690610e2892611cfc565b9560608c019687523690610e3b92611cfc565b9560808b019687523690610e4e92611cfc565b9560a08a0196875260c08a019788523690610e6892611cfc565b9a60e089019b8c526101008901974289523690610e8492611cfc565b9961012089019a8b52600052600360205260406000209751885560018801905180519067ffffffffffffffff82116106d5578190610ec284546117f9565b601f811161170f575b50602090601f83116001146116ac576000926116a1575b50506000198260011b9260031b1c19161790555b518051600288019167ffffffffffffffff82116106d5578190610f1984546117f9565b601f811161164e575b50602090601f83116001146115eb576000926115e0575b50506000198260011b9260031b1c19161790555b518051600387019167ffffffffffffffff82116106d5578190610f7084546117f9565b601f811161158d575b50602090601f831160011461152a5760009261151f575b50506000198260011b9260031b1c19161790555b518051600486019167ffffffffffffffff82116106d5578190610fc784546117f9565b601f81116114cc575b50602090601f83116001146114695760009261145e575b50506000198260011b9260031b1c19161790555b518051600585019167ffffffffffffffff82116106d55761101c83546117f9565b601f8111611416575b50602090601f83116001146113985773ffffffffffffffffffffffffffffffffffffffff949392916000918361138d575b50506000198260011b9260031b1c19161790555b511673ffffffffffffffffffffffffffffffffffffffff6006840191167fffffffffffffffffffffffff000000000000000000000000000000000000000082541617905560078201945194855167ffffffffffffffff81116106d5576110d082546117f9565b601f8111611345575b506020601f82116001146112db57819060099697986000926112d0575b50506000198260011b9260031b1c19161790555b51600882015501915191825167ffffffffffffffff81116106d55761112f82546117f9565b601f8111611288575b506020601f82116001146112235781929394600092611218575b50506000198260011b9260031b1c19161790555b60015460045490680100000000000000008210156106d5576111938260016111ab94016004556004611c55565b90919060001983549160031b92831b921b1916179055565b7f275f3392f5e686e72bfe6de2eff01a265b853fb67ddf1a4112f698a0feaaa85d60406111e2600154936024810190600401611cab565b9190601f19601f8484519586946020865281602087015286860137600085828601015201168101030190a2602060405160018152f35b015190508480611152565b601f1982169083600052806000209160005b81811061127057509583600195969710611257575b505050811b019055611166565b015160001960f88460031b161c1916905584808061124a565b9192602060018192868b015181550194019201611235565b826000526020600020601f830160051c810191602084106112c6575b601f0160051c01905b8181106112ba5750611138565b600081556001016112ad565b90915081906112a4565b0151905088806110f6565b601f1982169783600052816000209860005b81811061132d575091600997989991846001959410611314575b505050811b01905561110a565b015160001960f88460031b161c19169055888080611307565b838301518b556001909a0199602093840193016112ed565b826000526020600020601f830160051c81019160208410611383575b601f0160051c01905b81811061137757506110d9565b6000815560010161136a565b9091508190611361565b015190508a80611056565b90601f1983169184600052816000209260005b8181106113fe575091600193918573ffffffffffffffffffffffffffffffffffffffff98979694106113e5575b505050811b01905561106a565b015160001960f88460031b161c191690558a80806113d8565b929360206001819287860151815501950193016113ab565b836000526020600020601f840160051c81019160208510611454575b601f0160051c01905b8181106114485750611025565b6000815560010161143b565b9091508190611432565b015190508a80610fe7565b600085815282812093601f1916905b8181106114b4575090846001959493921061149b575b505050811b019055610ffb565b015160001960f88460031b161c191690558a808061148e565b92936020600181928786015181550195019301611478565b909150836000526020600020601f840160051c81019160208510611515575b90601f859493920160051c01905b8181106115065750610fd0565b600081558493506001016114f9565b90915081906114eb565b015190508b80610f90565b600085815282812093601f1916905b818110611575575090846001959493921061155c575b505050811b019055610fa4565b015160001960f88460031b161c191690558b808061154f565b92936020600181928786015181550195019301611539565b909150836000526020600020601f840160051c810191602085106115d6575b90601f859493920160051c01905b8181106115c75750610f79565b600081558493506001016115ba565b90915081906115ac565b015190508c80610f39565b600085815282812093601f1916905b818110611636575090846001959493921061161d575b505050811b019055610f4d565b015160001960f88460031b161c191690558c8080611610565b929360206001819287860151815501950193016115fa565b909150836000526020600020601f840160051c81019160208510611697575b90601f859493920160051c01905b8181106116885750610f22565b6000815584935060010161167b565b909150819061166d565b015190508d80610ee2565b600085815282812093601f1916905b8181106116f757509084600195949392106116de575b505050811b019055610ef6565b015160001960f88460031b161c191690558d80806116d1565b929360206001819287860151815501950193016116bb565b909150836000526020600020601f840160051c81019160208510611758575b90601f859493920160051c01905b8181106117495750610ecb565b6000815584935060010161173c565b909150819061172e565b346101985760206003193601126101985760043560005260066020526040600020805473ffffffffffffffffffffffffffffffffffffffff6001830154169161024360028201546117e96117b8600385016118a8565b60ff60056004870154960154169260405197889788526020880152604087015260c0606087015260c086019061196a565b92608085015260a08401906119ab565b90600182811c92168015611842575b602083101461181357565b7f4e487b7100000000000000000000000000000000000000000000000000000000600052602260045260246000fd5b91607f1691611808565b610140810190811067ffffffffffffffff8211176106d557604052565b60c0810190811067ffffffffffffffff8211176106d557604052565b90601f601f19910116810190811067ffffffffffffffff8211176106d557604052565b90604051918260008254926118bc846117f9565b808452936001811690811561192a57506001146118e3575b506118e192500383611885565b565b90506000929192526020600020906000915b81831061190e5750509060206118e192820101386118d4565b60209193508060019154838589010152019101909184926118f5565b602093506118e19592507fffffffffffffffffffffffffffffffffffffffffffffffffffffffffffffff0091501682840152151560051b820101386118d4565b919082519283825260005b848110611996575050601f19601f8460006020809697860101520116010190565b80602080928401015182828601015201611975565b9060028210156105e95752565b611a859181518152610120611a67611a35611a23611a116119ff6119ed602089015161014060208a015261014089019061196a565b604089015188820360408a015261196a565b6060880151878203606089015261196a565b6080870151868203608088015261196a565b60a086015185820360a087015261196a565b73ffffffffffffffffffffffffffffffffffffffff60c08601511660c085015260e085015184820360e086015261196a565b9261010081015161010084015201519061012081840391015261196a565b90565b602081016020825282518091526040820191602060408360051b8301019401926000915b838310611abb57505050505090565b9091929394602080611af7837fffffffffffffffffffffffffffffffffffffffffffffffffffffffffffffffc0866001960301875289516119b8565b97019301930191939290611aac565b602081016020825282518091526040820191602060408360051b8301019401926000915b838310611b3957505050505090565b9091929394602080827fffffffffffffffffffffffffffffffffffffffffffffffffffffffffffffffc08560019503018652611bce8951918251815273ffffffffffffffffffffffffffffffffffffffff8484015116848201526040830151604082015260a080611bb9606086015160c0606086015260c085019061196a565b946080810151608085015201519101906119ab565b97019301930191939290611b2a565b9181601f840112156101985782359167ffffffffffffffff8311610198576020838186019501011161019857565b600454811015611c2657600460005260206000200190600090565b7f4e487b7100000000000000000000000000000000000000000000000000000000600052603260045260246000fd5b8054821015611c265760005260206000200190600090565b6000198114611c7c5760010190565b7f4e487b7100000000000000000000000000000000000000000000000000000000600052601160045260246000fd5b9035907fffffffffffffffffffffffffffffffffffffffffffffffffffffffffffffffe181360301821215610198570180359067ffffffffffffffff82116101985760200191813603831361019857565b92919267ffffffffffffffff82116106d55760405191611d266020601f19601f8401160184611885565b829481845281830111610198578281602093846000960137010152565b90815491680100000000000000008310156106d557826111939160016118e195018155611c55565b67ffffffffffffffff81116106d55760051b60200190565b60405190611d908261184c565b6060610120836000815282602082015282604082015282808201528260808201528260a0820152600060c08201528260e082015260006101008201520152565b90611dda82611d6b565b611de76040519182611885565b828152601f19611df78294611d6b565b019060005b828110611e0857505050565b602090611e13611d83565b82828501015201611dfc565b8051821015611c265760209160051b010190565b15611e3a57565b60646040517f08c379a000000000000000000000000000000000000000000000000000000000815260206004820152601360248201527f496e76616c6964206f6666696369616c204944000000000000000000000000006044820152fd5b90611ea282611d6b565b611eaf6040519182611885565b828152601f19611ebf8294611d6b565b019060005b828110611ed057505050565b602090604051611edf81611869565b600081526000838201526000604082015260608082015260006080820152600060a082015282828501015201611ec4565b60028210156105e95752565b73ffffffffffffffffffffffffffffffffffffffff600054163303611f3d57565b7f118cdaa7000000000000000000000000000000000000000000000000000000006000523360045260246000fd5b908151811015611c26570160200190565b90815180156120555781518015612064571161205d576000905b825181518103908111611c7c5782116120555760019260005b825181101561204b57808401808511611c7c57611fed7fff000000000000000000000000000000000000000000000000000000000000009184611f6b565b51167fff0000000000000000000000000000000000000000000000000000000000000061201a8386611f6b565b51160361202957600101611faf565b5092509060005b6120435761203d90611c6d565b90611f96565b505050600190565b5092919091612030565b505050600090565b5050600090565b5050505060009056fea264697066735822122016cc260c10e7d45b5e93f870763991f569b431012561a38811da792dbbac397d64736f6c634300081c0033",
  "linkReferences": {},
  "deployedLinkReferences": {}
}