{"contracts/CivicLink.sol":{"CivicLink":{"abi":[{"inputs":[],"stateMutability":"nonpayable","type":"constructor"},{"inputs":[{"internalType":"address","name":"owner","type":"address"}],"name":"OwnableInvalidOwner","type":"error"},{"inputs":[{"internalType":"address","name":"account","type":"address"}],"name":"OwnableUnauthorizedAccount","type":"error"},{"anonymous":false,"inputs":[{"indexed":true,"internalType":"uint256","name":"messageId","type":"uint256"},{"indexed":true,"internalType":"address","name":"sender","type":"address"},{"indexed":false,"internalType":"uint256","name":"receiverId","type":"uint256"}],"name":"MessageSent","type":"event"},{"anonymous":false,"inputs":[{"indexed":true,"internalType":"uint256","name":"officialId","type":"uint256"},{"indexed":false,"internalType":"string","name":"name","type":"string"}],"name":"OfficialAdded","type":"event"},{"anonymous":false,"inputs":[{"indexed":true,"internalType":"address","name":"previousOwner","type":"address"},{"indexed":true,"internalType":"address","name":"newOwner","type":"address"}],"name":"OwnershipTransferred","type":"event"},{"inputs":[{"components":[{"internalType":"uint256","name":"id","type":"uint256"},{"internalType":"string","name":"name","type":"string"},{"internalType":"string","name":"role","type":"string"},{"internalType":"string","name":"about","type":"string"},{"internalType":"string","name":"contactEmail","type":"string"},{"internalType":"string","name":"officeLine","type":"string"},{"internalType":"address","name":"walletAddress","type":"address"},{"internalType":"string","name":"imageUrl","type":"string"},{"internalType":"uint256","name":"verifiedAt","type":"uint256"},{"internalType":"string","name":"structureName","type":"string"}],"internalType":"struct CivicLink.Official","name":"_params","type":"tuple"}],"name":"addOfficial","outputs":[{"internalType":"bool","name":"","type":"bool"}],"stateMutability":"nonpayable","type":"function"},{"inputs":[],"name":"getMessageHistory","outputs":[{"components":[{"internalType":"uint256","name":"id","type":"uint256"},{"internalType":"address","name":"senderAddress","type":"address"},{"internalType":"uint256","name":"receiverId","type":"uint256"},{"internalType":"string","name":"content","type":"string"},{"internalType":"uint256","name":"timestamp","type":"uint256"},{"internalType":"enum CivicLink.MessageStatus","name":"status","type":"uint8"}],"internalType":"struct CivicLink.Message[]","name":"history","type":"tuple[]"}],"stateMutability":"view","type":"function"},{"inputs":[{"internalType":"uint256","name":"_officialId","type":"uint256"}],"name":"getOfficialDetails","outputs":[{"components":[{"internalType":"uint256","name":"id","type":"uint256"},{"internalType":"string","name":"name","type":"string"},{"internalType":"string","name":"role","type":"string"},{"internalType":"string","name":"about","type":"string"},{"internalType":"string","name":"contactEmail","type":"string"},{"internalType":"string","name":"officeLine","type":"string"},{"internalType":"address","name":"walletAddress","type":"address"},{"internalType":"string","name":"imageUrl","type":"string"},{"internalType":"uint256","name":"verifiedAt","type":"uint256"},{"internalType":"string","name":"structureName","type":"string"}],"internalType":"struct CivicLink.Official","name":"","type":"tuple"}],"stateMutability":"view","type":"function"},{"inputs":[{"internalType":"uint256","name":"_officialId","type":"uint256"}],"name":"getOfficialMessages","outputs":[{"components":[{"internalType":"uint256","name":"id","type":"uint256"},{"internalType":"address","name":"senderAddress","type":"address"},{"internalType":"uint256","name":"receiverId","type":"uint256"},{"internalType":"string","name":"content","type":"string"},{"internalType":"uint256","name":"timestamp","type":"uint256"},{"internalType":"enum CivicLink.MessageStatus","name":"status","type":"uint8"}],"internalType":"struct CivicLink.Message[]","name":"","type":"tuple[]"}],"stateMutability":"view","type":"function"},{"inputs":[],"name":"getOfficials","outputs":[{"components":[{"internalType":"uint256","name":"id","type":"uint256"},{"internalType":"string","name":"name","type":"string"},{"internalType":"string","name":"role","type":"string"},{"internalType":"string","name":"about","type":"string"},{"internalType":"string","name":"contactEmail","type":"string"},{"internalType":"string","name":"officeLine","type":"string"},{"internalType":"address","name":"walletAddress","type":"address"},{"internalType":"string","name":"imageUrl","type":"string"},{"internalType":"uint256","name":"verifiedAt","type":"uint256"},{"internalType":"string","name":"structureName","type":"string"}],"internalType":"struct CivicLink.Official[]","name":"allOfficials","type":"tuple[]"}],"stateMutability":"view","type":"function"},{"inputs":[],"name":"messageCount","outputs":[{"internalType":"uint256","name":"","type":"uint256"}],"stateMutability":"view","type":"function"},{"inputs":[{"internalType":"uint256","name":"","type":"uint256"}],"name":"messages","outputs":[{"internalType":"uint256","name":"id","type":"uint256"},{"internalType":"address","name":"senderAddress","type":"address"},{"internalType":"uint256","name":"receiverId","type":"uint256"},{"internalType":"string","name":"content","type":"string"},{"internalType":"uint256","name":"timestamp","type":"uint256"},{"internalType":"enum CivicLink.MessageStatus","name":"status","type":"uint8"}],"stateMutability":"view","type":"function"},{"inputs":[],"name":"officialCount","outputs":[{"internalType":"uint256","name":"","type":"uint256"}],"stateMutability":"view","type":"function"},{"inputs":[{"internalType":"uint256","name":"","type":"uint256"}],"name":"officialIds","outputs":[{"internalType":"uint256","name":"","type":"uint256"}],"stateMutability":"view","type":"function"},{"inputs":[{"internalType":"uint256","name":"","type":"uint256"}],"name":"officials","outputs":[{"internalType":"uint256","name":"id","type":"uint256"},{"internalType":"string","name":"name","type":"string"},{"internalType":"string","name":"role","type":"string"},{"internalType":"string","name":"about","type":"string"},{"internalType":"string","name":"contactEmail","type":"string"},{"internalType":"string","name":"officeLine","type":"string"},{"internalType":"address","name":"walletAddress","type":"address"},{"internalType":"string","name":"imageUrl","type":"string"},{"internalType":"uint256","name":"verifiedAt","type":"uint256"},{"internalType":"string","name":"structureName","type":"string"}],"stateMutability":"view","type":"function"},{"inputs":[],"name":"owner","outputs":[{"internalType":"address","name":"","type":"address"}],"stateMutability":"view","type":"function"},{"inputs":[],"name":"renounceOwnership","outputs":[],"stateMutability":"nonpayable","type":"function"},{"inputs":[{"internalType":"string","name":"_keyword","type":"string"}],"name":"searchOfficials","outputs":[{"components":[{"internalType":"uint256","name":"id","type":"uint256"},{"internalType":"string","name":"name","type":"string"},{"internalType":"string","name":"role","type":"string"},{"internalType":"string","name":"about","type":"string"},{"internalType":"string","name":"contactEmail","type":"string"},{"internalType":"string","name":"officeLine","type":"string"},{"internalType":"address","name":"walletAddress","type":"address"},{"internalType":"string","name":"imageUrl","type":"string"},{"internalType":"uint256","name":"verifiedAt","type":"uint256"},{"internalType":"string","name":"structureName","type":"string"}],"internalType":"struct CivicLink.Official[]","name":"","type":"tuple[]"}],"stateMutability":"view","type":"function"},{"inputs":[{"internalType":"uint256","name":"_receiverId","type":"uint256"},{"internalType":"string","name":"_content","type":"string"}],"name":"sendMessage","outputs":[{"internalType":"bool","name":"success","type":"bool"}],"stateMutability":"nonpayable","type":"function"},{"inputs":[{"internalType":"address","name":"newOwner","type":"address"}],"name":"transferOwnership","outputs":[],"stateMutability":"nonpayable","type":"function"}],"evm":{"bytecode":{"linkReferences":{},"object":"608080604052346075573315605f5760008054336001600160a01b0319821681178355916001600160a01b03909116907f8be0079c531659141344cd1fd0a4f28419497f9722a3daafe3b4186f6b6457e09080a36120a3908161007b8239f35b631e4fbdf760e01b600052600060045260246000fd5b600080fdfe60a0604052600436101561001257600080fd5b60003560e01c80630d80fefd14611762578063260f613714610cf25780633dbcc8d114610cd457806345b91ded14610cb657806358bc733114610c1d578063663b653d14610b0b578063715018a614610a8d57806375abf685146109c25780638da5cb5b1461098e57806397ad6afd1461085d57806399e410d814610710578063aae8b592146103d7578063b2823487146101d5578063c2e43fe61461019d5763f2fde38b146100c157600080fd5b346101985760206003193601126101985760043573ffffffffffffffffffffffffffffffffffffffff8116809103610198576100fb611f1c565b80156101695773ffffffffffffffffffffffffffffffffffffffff600054827fffffffffffffffffffffffff0000000000000000000000000000000000000000821617600055167f8be0079c531659141344cd1fd0a4f28419497f9722a3daafe3b4186f6b6457e0600080a3005b7f1e4fbdf700000000000000000000000000000000000000000000000000000000600052600060045260246000fd5b600080fd5b3461019857602060031936011261019857600435600454811015610198576101c6602091611c0b565b90549060031b1c604051908152f35b346101985760206003193601126101985760043567ffffffffffffffff811161019857610206903690600401611bdd565b60045461021281611dd0565b92600092835b83811061027157858561022a81611dd0565b9160005b82811061024757604051806102438682611a88565b0390f35b8061025460019284611e1f565b5161025f8287611e1f565b5261026a8186611e1f565b500161022e565b61027a81611c0b565b90549060031b1c600052600360205260406000206040519061029b8261184c565b805482526102ab600182016118a8565b6020830190815261035e61034360096102c6600286016118a8565b94604087019586526102da600382016118a8565b60608801526102eb600482016118a8565b60808801526102fc600582016118a8565b60a088015273ffffffffffffffffffffffffffffffffffffffff60068201541660c088015261032d600782016118a8565b60e08801526008810154610100880152016118a8565b9161012085019283525161035836888a611cfc565b90611f7c565b9182156103be575b5081156103a7575b5061037d575b50600101610218565b856103a09161038f600194988a611e1f565b5261039a8189611e1f565b50611c6d565b9490610374565b6103b8915051610358368688611cfc565b8861036e565b6103d091925051610358368789611cfc565b9089610366565b346101985760406003193601126101985760043560243567ffffffffffffffff81116101985761040b903690600401611bdd565b919081151580610704575b61041f90611e33565b61042a600254611c6d565b90816002556040519061043c82611869565b828252610459602083019133835260408401968688523691611cfc565b946060830195865273ffffffffffffffffffffffffffffffffffffffff608084019242845260a0850195600087526000526006602052604060002094518555511673ffffffffffffffffffffffffffffffffffffffff6001850191167fffffffffffffffffffffffff000000000000000000000000000000000000000082541617905551600283015560038201945194855167ffffffffffffffff81116106d55761050482546117f9565b601f811161068d575b506020601f82116001146106235781906005969798600092610618575b50506000198260011b9260031b1c19161790555b5160048201550190519060028210156105e9576105af9160409160009160ff7fffffffffffffffffffffffffffffffffffffffffffffffffffffffffffffff008354169116179055338152600560205261059d82822060025490611d43565b83815260076020522060025490611d43565b6002546040519182527f5d0e140b7cef2ea5088380639c54b5d796f25498bf81fb82f87069a07a8f652b60203393a3602060405160018152f35b7f4e487b7100000000000000000000000000000000000000000000000000000000600052602160045260246000fd5b01519050888061052a565b601f1982169783600052816000209860005b81811061067557509160059798999184600195941061065c575b505050811b01905561053e565b015160001960f88460031b161c1916905588808061064f565b838301518b556001909a019960209384019301610635565b826000526020600020601f830160051c810191602084106106cb575b601f0160051c01905b8181106106bf575061050d565b600081556001016106b2565b90915081906106a9565b7f4e487b7100000000000000000000000000000000000000000000000000000000600052604160045260246000fd5b50600154821115610416565b346101985760206003193601126101985760043580151580610851575b61073690611e33565b600052600760205260406000206040518082602082945493848152019060005260206000209260005b81811061083857505061077492500382611885565b61077e8151611e98565b9060005b815181101561082a578061079860019284611e1f565b516000526006602052604060002061080e60ff6005604051936107ba85611869565b8054855273ffffffffffffffffffffffffffffffffffffffff87820154166020860152600281015460408601526107f3600382016118a8565b60608601526004810154608086015201541660a08301611f10565b6108188286611e1f565b526108238185611e1f565b5001610782565b604051806102438582611b06565b845483526001948501948694506020909301920161075f565b5060015481111561072d565b34610198576020600319360112610198576004356000526003602052604060002080546001820161088d906118a8565b9161089a600282016118a8565b906108a7600382016118a8565b6108b3600483016118a8565b6108bf600584016118a8565b600684015473ffffffffffffffffffffffffffffffffffffffff16916108e7600786016118a8565b936008860154956009016108fa906118a8565b96604051998a998a5260208a0161014090526101408a0161091a9161196a565b89810360408b015261092b9161196a565b88810360608a015261093c9161196a565b878103608089015261094d9161196a565b86810360a088015261095e9161196a565b9060c086015284810360e08601526109759161196a565b906101008401528281036101208401526102439161196a565b3461019857600060031936011261019857602073ffffffffffffffffffffffffffffffffffffffff60005416604051908152f35b346101985760006003193601126101985733600052600560205260406000206040518082602082945493848152019060005260206000209260005b818110610a74575050610a1292500382611885565b610a1c8151611e98565b9060005b815181101561082a5780610a3660019284611e1f565b5160005260066020526040600020610a5860ff6005604051936107ba85611869565b610a628286611e1f565b52610a6d8185611e1f565b5001610a20565b84548352600194850194869450602090930192016109fd565b3461019857600060031936011261019857610aa6611f1c565b600073ffffffffffffffffffffffffffffffffffffffff81547fffffffffffffffffffffffff000000000000000000000000000000000000000081168355167f8be0079c531659141344cd1fd0a4f28419497f9722a3daafe3b4186f6b6457e08280a3005b3461019857602060031936011261019857600435610b27611d83565b5080151580610c11575b610b3a90611e33565b60005260036020526102436040600020610bf7600960405192610b5c8461184c565b80548452610b6c600182016118a8565b6020850152610b7d600282016118a8565b6040850152610b8e600382016118a8565b6060850152610b9f600482016118a8565b6080850152610bb0600582016118a8565b60a085015273ffffffffffffffffffffffffffffffffffffffff60068201541660c0850152610be1600782016118a8565b60e08501526008810154610100850152016118a8565b6101208201526040519182916020835260208301906119b8565b50600154811115610b31565b3461019857600060031936011261019857600454610c3a81611dd0565b9060005b818110610c5357604051806102438582611a88565b80610c5f600192611c0b565b90549060031b1c60005260036020526040600020610c94600960405192610c858461184c565b80548452610b6c8682016118a8565b610120820152610ca48286611e1f565b52610caf8185611e1f565b5001610c3e565b34610198576000600319360112610198576020600154604051908152f35b34610198576000600319360112610198576020600254604051908152f35b346101985760206003193601126101985760043567ffffffffffffffff811161019857610140600319823603011261019857610d2c611f1c565b610d37600154611c6d565b80600155610d4b6024830183600401611cab565b9060805291610d606044820182600401611cab565b9390610d726064840184600401611cab565b610d826084860186600401611cab565b610d9560a4889493940188600401611cab565b929060c48901359573ffffffffffffffffffffffffffffffffffffffff8716809703610198578a91610dcd60e48c0160048d01611cab565b979092610de16101248e0160048f01611cab565b9b909f6040519d8e97610df38961184c565b88523660805191610e0392611cfc565b966020019687523690610e1592611cfc565b9560408d019687523690610e2892611cfc565b9560608c019687523690610e3b92611cfc565b9560808b019687523690610e4e92611cfc565b9560a08a0196875260c08a019788523690610e6892611cfc565b9a60e089019b8c526101008901974289523690610e8492611cfc565b9961012089019a8b52600052600360205260406000209751885560018801905180519067ffffffffffffffff82116106d5578190610ec284546117f9565b601f811161170f575b50602090601f83116001146116ac576000926116a1575b50506000198260011b9260031b1c19161790555b518051600288019167ffffffffffffffff82116106d5578190610f1984546117f9565b601f811161164e575b50602090601f83116001146115eb576000926115e0575b50506000198260011b9260031b1c19161790555b518051600387019167ffffffffffffffff82116106d5578190610f7084546117f9565b601f811161158d575b50602090601f831160011461152a5760009261151f575b50506000198260011b9260031b1c19161790555b518051600486019167ffffffffffffffff82116106d5578190610fc784546117f9565b601f81116114cc575b50602090601f83116001146114695760009261145e575b50506000198260011b9260031b1c19161790555b518051600585019167ffffffffffffffff82116106d55761101c83546117f9565b601f8111611416575b50602090601f83116001146113985773ffffffffffffffffffffffffffffffffffffffff949392916000918361138d575b50506000198260011b9260031b1c19161790555b511673ffffffffffffffffffffffffffffffffffffffff6006840191167fffffffffffffffffffffffff000000000000000000000000000000000000000082541617905560078201945194855167ffffffffffffffff81116106d5576110d082546117f9565b601f8111611345575b506020601f82116001146112db57819060099697986000926112d0575b50506000198260011b9260031b1c19161790555b51600882015501915191825167ffffffffffffffff81116106d55761112f82546117f9565b601f8111611288575b506020601f82116001146112235781929394600092611218575b50506000198260011b9260031b1c19161790555b60015460045490680100000000000000008210156106d5576111938260016111ab94016004556004611c55565b90919060001983549160031b92831b921b1916179055565b7f275f3392f5e686e72bfe6de2eff01a265b853fb67ddf1a4112f698a0feaaa85d60406111e2600154936024810190600401611cab565b9190601f19601f8484519586946020865281602087015286860137600085828601015201168101030190a2602060405160018152f35b015190508480611152565b601f1982169083600052806000209160005b81811061127057509583600195969710611257575b505050811b019055611166565b015160001960f88460031b161c1916905584808061124a565b9192602060018192868b015181550194019201611235565b826000526020600020601f830160051c810191602084106112c6575b601f0160051c01905b8181106112ba5750611138565b600081556001016112ad565b90915081906112a4565b0151905088806110f6565b601f1982169783600052816000209860005b81811061132d575091600997989991846001959410611314575b505050811b01905561110a565b015160001960f88460031b161c19169055888080611307565b838301518b556001909a0199602093840193016112ed565b826000526020600020601f830160051c81019160208410611383575b601f0160051c01905b81811061137757506110d9565b6000815560010161136a565b9091508190611361565b015190508a80611056565b90601f1983169184600052816000209260005b8181106113fe575091600193918573ffffffffffffffffffffffffffffffffffffffff98979694106113e5575b505050811b01905561106a565b015160001960f88460031b161c191690558a80806113d8565b929360206001819287860151815501950193016113ab565b836000526020600020601f840160051c81019160208510611454575b601f0160051c01905b8181106114485750611025565b6000815560010161143b565b9091508190611432565b015190508a80610fe7565b600085815282812093601f1916905b8181106114b4575090846001959493921061149b575b505050811b019055610ffb565b015160001960f88460031b161c191690558a808061148e565b92936020600181928786015181550195019301611478565b909150836000526020600020601f840160051c81019160208510611515575b90601f859493920160051c01905b8181106115065750610fd0565b600081558493506001016114f9565b90915081906114eb565b015190508b80610f90565b600085815282812093601f1916905b818110611575575090846001959493921061155c575b505050811b019055610fa4565b015160001960f88460031b161c191690558b808061154f565b92936020600181928786015181550195019301611539565b909150836000526020600020601f840160051c810191602085106115d6575b90601f859493920160051c01905b8181106115c75750610f79565b600081558493506001016115ba565b90915081906115ac565b015190508c80610f39565b600085815282812093601f1916905b818110611636575090846001959493921061161d575b505050811b019055610f4d565b015160001960f88460031b161c191690558c8080611610565b929360206001819287860151815501950193016115fa565b909150836000526020600020601f840160051c81019160208510611697575b90601f859493920160051c01905b8181106116885750610f22565b6000815584935060010161167b565b909150819061166d565b015190508d80610ee2565b600085815282812093601f1916905b8181106116f757509084600195949392106116de575b505050811b019055610ef6565b015160001960f88460031b161c191690558d80806116d1565b929360206001819287860151815501950193016116bb565b909150836000526020600020601f840160051c81019160208510611758575b90601f859493920160051c01905b8181106117495750610ecb565b6000815584935060010161173c565b909150819061172e565b346101985760206003193601126101985760043560005260066020526040600020805473ffffffffffffffffffffffffffffffffffffffff6001830154169161024360028201546117e96117b8600385016118a8565b60ff60056004870154960154169260405197889788526020880152604087015260c0606087015260c086019061196a565b92608085015260a08401906119ab565b90600182811c92168015611842575b602083101461181357565b7f4e487b7100000000000000000000000000000000000000000000000000000000600052602260045260246000fd5b91607f1691611808565b610140810190811067ffffffffffffffff8211176106d557604052565b60c0810190811067ffffffffffffffff8211176106d557604052565b90601f601f19910116810190811067ffffffffffffffff8211176106d557604052565b90604051918260008254926118bc846117f9565b808452936001811690811561192a57506001146118e3575b506118e192500383611885565b565b90506000929192526020600020906000915b81831061190e5750509060206118e192820101386118d4565b60209193508060019154838589010152019101909184926118f5565b602093506118e19592507fffffffffffffffffffffffffffffffffffffffffffffffffffffffffffffff0091501682840152151560051b820101386118d4565b919082519283825260005b848110611996575050601f19601f8460006020809697860101520116010190565b80602080928401015182828601015201611975565b9060028210156105e95752565b611a859181518152610120611a67611a35611a23611a116119ff6119ed602089015161014060208a015261014089019061196a565b604089015188820360408a015261196a565b6060880151878203606089015261196a565b6080870151868203608088015261196a565b60a086015185820360a087015261196a565b73ffffffffffffffffffffffffffffffffffffffff60c08601511660c085015260e085015184820360e086015261196a565b9261010081015161010084015201519061012081840391015261196a565b90565b602081016020825282518091526040820191602060408360051b8301019401926000915b838310611abb57505050505090565b9091929394602080611af7837fffffffffffffffffffffffffffffffffffffffffffffffffffffffffffffffc0866001960301875289516119b8565b97019301930191939290611aac565b602081016020825282518091526040820191602060408360051b8301019401926000915b838310611b3957505050505090565b9091929394602080827fffffffffffffffffffffffffffffffffffffffffffffffffffffffffffffffc08560019503018652611bce8951918251815273ffffffffffffffffffffffffffffffffffffffff8484015116848201526040830151604082015260a080611bb9606086015160c0606086015260c085019061196a565b946080810151608085015201519101906119ab565b97019301930191939290611b2a565b9181601f840112156101985782359167ffffffffffffffff8311610198576020838186019501011161019857565b600454811015611c2657600460005260206000200190600090565b7f4e487b7100000000000000000000000000000000000000000000000000000000600052603260045260246000fd5b8054821015611c265760005260206000200190600090565b6000198114611c7c5760010190565b7f4e487b7100000000000000000000000000000000000000000000000000000000600052601160045260246000fd5b9035907fffffffffffffffffffffffffffffffffffffffffffffffffffffffffffffffe181360301821215610198570180359067ffffffffffffffff82116101985760200191813603831361019857565b92919267ffffffffffffffff82116106d55760405191611d266020601f19601f8401160184611885565b829481845281830111610198578281602093846000960137010152565b90815491680100000000000000008310156106d557826111939160016118e195018155611c55565b67ffffffffffffffff81116106d55760051b60200190565b60405190611d908261184c565b6060610120836000815282602082015282604082015282808201528260808201528260a0820152600060c08201528260e082015260006101008201520152565b90611dda82611d6b565b611de76040519182611885565b828152601f19611df78294611d6b565b019060005b828110611e0857505050565b602090611e13611d83565b82828501015201611dfc565b8051821015611c265760209160051b010190565b15611e3a57565b60646040517f08c379a000000000000000000000000000000000000000000000000000000000815260206004820152601360248201527f496e76616c6964206f6666696369616c204944000000000000000000000000006044820152fd5b90611ea282611d6b565b611eaf6040519182611885565b828152601f19611ebf8294611d6b565b019060005b828110611ed057505050565b602090604051611edf81611869565b600081526000838201526000604082015260608082015260006080820152600060a082015282828501015201611ec4565b60028210156105e95752565b73ffffffffffffffffffffffffffffffffffffffff600054163303611f3d57565b7f118cdaa7000000000000000000000000000000000000000000000000000000006000523360045260246000fd5b908151811015611c26570160200190565b90815180156120555781518015612064571161205d576000905b825181518103908111611c7c5782116120555760019260005b825181101561204b57808401808511611c7c57611fed7fff000000000000000000000000000000000000000000000000000000000000009184611f6b565b51167fff0000000000000000000000000000000000000000000000000000000000000061201a8386611f6b565b51160361202957600101611faf565b5092509060005b6120435761203d90611c6d565b90611f96565b505050600190565b5092919091612030565b505050600090565b5050600090565b5050505060009056fea264697066735822122016cc260c10e7d45b5e93f870763991f569b431012561a38811da792dbbac397d64736f6c634300081c0033","opcodes":"PUSH1 0x80 DUP1 PUSH1 0x40 MSTORE CALLVALUE PUSH1 0x75 JUMPI CALLER ISZERO PUSH1 0x5F JUMPI PUSH1 0x0 DUP1 SLOAD CALLER PUSH1 0x1 PUSH1 0x1 PUSH1 0xA0 SHL SUB NOT DUP3 AND DUP2 OR DUP4 SSTORE SWAP2 PUSH1 0x1 PUSH1 0x1 PUSH1 0xA0 SHL SUB SWAP1 SWAP2 AND SWAP1 PUSH32 0x8BE0079C531659141344CD1FD0A4F28419497F9722A3DAAFE3B4186F6B6457E0 SWAP1 DUP1 LOG3 PUSH2 0x20A3 SWAP1 DUP2 PUSH2 0x7B DUP3 CODECOPY RETURN JUMPDEST PUSH4 0x1E4FBDF7 PUSH1 0xE0 SHL PUSH1 0x0 MSTORE PUSH1 0x0 PUSH1 0x4 MSTORE PUSH1 0x24 PUSH1 0x0 REVERT JUMPDEST PUSH1 0x0 DUP1 REVERT INVALID PUSH1 0xA0 PUSH1 0x40 MSTORE PUSH1 0x4 CALLDATASIZE LT ISZERO PUSH2 0x12 JUMPI PUSH1 0x0 DUP1 REVERT JUMPDEST PUSH1 0x0 CALLDATALOAD PUSH1 0xE0 SHR DUP1 PUSH4 0xD80FEFD EQ PUSH2 0x1762 JUMPI DUP1 PUSH4 0x260F6137 EQ PUSH2 0xCF2 JUMPI DUP1 PUSH4 0x3DBCC8D1 EQ PUSH2 0xCD4 JUMPI DUP1 PUSH4 0x45B91DED EQ PUSH2 0xCB6 JUMPI DUP1 PUSH4 0x58BC7331 EQ PUSH2 0xC1D JUMPI DUP1 PUSH4 0x663B653D EQ PUSH2 0xB0B JUMPI DUP1 PUSH4 0x715018A6 EQ PUSH2 0xA8D JUMPI DUP1 PUSH4 0x75ABF685 EQ PUSH2 0x9C2 JUMPI DUP1 PUSH4 0x8DA5CB5B EQ PUSH2 0x98E JUMPI DUP1 PUSH4 0x97AD6AFD EQ PUSH2 0x85D JUMPI DUP1 PUSH4 0x99E410D8 EQ PUSH2 0x710 JUMPI DUP1 PUSH4 0xAAE8B592 EQ PUSH2 0x3D7 JUMPI DUP1 PUSH4 0xB2823487 EQ PUSH2 0x1D5 JUMPI DUP1 PUSH4 0xC2E43FE6 EQ PUSH2 0x19D JUMPI PUSH4 0xF2FDE38B EQ PUSH2 0xC1 JUMPI PUSH1 0x0 DUP1 REVERT JUMPDEST CALLVALUE PUSH2 0x198 JUMPI PUSH1 0x20 PUSH1 0x3 NOT CALLDATASIZE ADD SLT PUSH2 0x198 JUMPI PUSH1 0x4 CALLDATALOAD PUSH20 0xFFFFFFFFFFFFFFFFFFFFFFFFFFFFFFFFFFFFFFFF DUP2 AND DUP1 SWAP2 SUB PUSH2 0x198 JUMPI PUSH2 0xFB PUSH2 0x1F1C JUMP JUMPDEST DUP1 ISZERO PUSH2 0x169 JUMPI PUSH20 0xFFFFFFFFFFFFFFFFFFFFFFFFFFFFFFFFFFFFFFFF PUSH1 0x0 SLOAD DUP3 PUSH32 0xFFFFFFFFFFFFFFFFFFFFFFFF0000000000000000000000000000000000000000 DUP3 AND OR PUSH1 0x0 SSTORE AND PUSH32 0x8BE0079C531659141344CD1FD0A4F28419497F9722A3DAAFE3B4186F6B6457E0 PUSH1 0x0 DUP1 LOG3 STOP JUMPDEST PUSH32 0x1E4FBDF700000000000000000000000000000000000000000000000000000000 PUSH1 0x0 MSTORE PUSH1 0x0 PUSH1 0x4 MSTORE PUSH1 0x24 PUSH1 0x0 REVERT JUMPDEST PUSH1 0x0 DUP1 REVERT JUMPDEST CALLVALUE PUSH2 0x198 JUMPI PUSH1 0x20 PUSH1 0x3 NOT CALLDATASIZE ADD SLT PUSH2 0x198 JUMPI PUSH1 0x4 CALLDATALOAD PUSH1 0x4 SLOAD DUP2 LT ISZERO PUSH2 0x198 JUMPI PUSH2 0x1C6 PUSH1 0x20 SWAP2 PUSH2 0x1C0B JUMP JUMPDEST SWAP1 SLOAD SWAP1 PUSH1 0x3 SHL SHR PUSH1 0x40 MLOAD SWAP1 DUP2 MSTORE RETURN JUMPDEST CALLVALUE PUSH2 0x198 JUMPI PUSH1 0x20 PUSH1 0x3 NOT CALLDATASIZE ADD SLT PUSH2 0x198 JUMPI PUSH1 0x4 CALLDATALOAD PUSH8 0xFFFFFFFFFFFFFFFF DUP2 GT PUSH2 0x198 JUMPI PUSH2 0x206 SWAP1 CALLDATASIZE SWAP1 PUSH1 0x4 ADD PUSH2 0x1BDD JUMP JUMPDEST PUSH1 0x4 SLOAD PUSH2 0x212 DUP2 PUSH2 0x1DD0 JUMP JUMPDEST SWAP3 PUSH1 0x0 SWAP3 DUP4 JUMPDEST DUP4 DUP2 LT PUSH2 0x271 JUMPI DUP6 DUP6 PUSH2 0x22A DUP2 PUSH2 0x1DD0 JUMP JUMPDEST SWAP2 PUSH1 0x0 JUMPDEST DUP3 DUP2 LT PUSH2 0x247 JUMPI PUSH1 0x40 MLOAD DUP1 PUSH2 0x243 DUP7 DUP3 PUSH2 0x1A88 JUMP JUMPDEST SUB SWAP1 RETURN JUMPDEST DUP1 PUSH2 0x254 PUSH1 0x1 SWAP3 DUP5 PUSH2 0x1E1F JUMP JUMPDEST MLOAD PUSH2 0x25F DUP3 DUP8 PUSH2 0x1E1F JUMP JUMPDEST MSTORE PUSH2 0x26A DUP2 DUP7 PUSH2 0x1E1F JUMP JUMPDEST POP ADD PUSH2 0x22E JUMP JUMPDEST PUSH2 0x27A DUP2 PUSH2 0x1C0B JUMP JUMPDEST SWAP1 SLOAD SWAP1 PUSH1 0x3 SHL SHR PUSH1 0x0 MSTORE PUSH1 0x3 PUSH1 0x20 MSTORE PUSH1 0x40 PUSH1 0x0 KECCAK256 PUSH1 0x40 MLOAD SWAP1 PUSH2 0x29B DUP3 PUSH2 0x184C JUMP JUMPDEST DUP1 SLOAD DUP3 MSTORE PUSH2 0x2AB PUSH1 0x1 DUP3 ADD PUSH2 0x18A8 JUMP JUMPDEST PUSH1 0x20 DUP4 ADD SWAP1 DUP2 MSTORE PUSH2 0x35E PUSH2 0x343 PUSH1 0x9 PUSH2 0x2C6 PUSH1 0x2 DUP7 ADD PUSH2 0x18A8 JUMP JUMPDEST SWAP5 PUSH1 0x40 DUP8 ADD SWAP6 DUP7 MSTORE PUSH2 0x2DA PUSH1 0x3 DUP3 ADD PUSH2 0x18A8 JUMP JUMPDEST PUSH1 0x60 DUP9 ADD MSTORE PUSH2 0x2EB PUSH1 0x4 DUP3 ADD PUSH2 0x18A8 JUMP JUMPDEST PUSH1 0x80 DUP9 ADD MSTORE PUSH2 0x2FC PUSH1 0x5 DUP3 ADD PUSH2 0x18A8 JUMP JUMPDEST PUSH1 0xA0 DUP9 ADD MSTORE PUSH20 0xFFFFFFFFFFFFFFFFFFFFFFFFFFFFFFFFFFFFFFFF PUSH1 0x6 DUP3 ADD SLOAD AND PUSH1 0xC0 DUP9 ADD MSTORE PUSH2 0x32D PUSH1 0x7 DUP3 ADD PUSH2 0x18A8 JUMP JUMPDEST PUSH1 0xE0 DUP9 ADD MSTORE PUSH1 0x8 DUP2 ADD SLOAD PUSH2 0x100 DUP9 ADD MSTORE ADD PUSH2 0x18A8 JUMP JUMPDEST SWAP2 PUSH2 0x120 DUP6 ADD SWAP3 DUP4 MSTORE MLOAD PUSH2 0x358 CALLDATASIZE DUP9 DUP11 PUSH2 0x1CFC JUMP JUMPDEST SWAP1 PUSH2 0x1F7C JUMP JUMPDEST SWAP2 DUP3 ISZERO PUSH2 0x3BE JUMPI JUMPDEST POP DUP2 ISZERO PUSH2 0x3A7 JUMPI JUMPDEST POP PUSH2 0x37D JUMPI JUMPDEST POP PUSH1 0x1 ADD PUSH2 0x218 JUMP JUMPDEST DUP6 PUSH2 0x3A0 SWAP2 PUSH2 0x38F PUSH1 0x1 SWAP5 SWAP9 DUP11 PUSH2 0x1E1F JUMP JUMPDEST MSTORE PUSH2 0x39A DUP2 DUP10 PUSH2 0x1E1F JUMP JUMPDEST POP PUSH2 0x1C6D JUMP JUMPDEST SWAP5 SWAP1 PUSH2 0x374 JUMP JUMPDEST PUSH2 0x3B8 SWAP2 POP MLOAD PUSH2 0x358 CALLDATASIZE DUP7 DUP9 PUSH2 0x1CFC JUMP JUMPDEST DUP9 PUSH2 0x36E JUMP JUMPDEST PUSH2 0x3D0 SWAP2 SWAP3 POP MLOAD PUSH2 0x358 CALLDATASIZE DUP8 DUP10 PUSH2 0x1CFC JUMP JUMPDEST SWAP1 DUP10 PUSH2 0x366 JUMP JUMPDEST CALLVALUE PUSH2 0x198 JUMPI PUSH1 0x40 PUSH1 0x3 NOT CALLDATASIZE ADD SLT PUSH2 0x198 JUMPI PUSH1 0x4 CALLDATALOAD PUSH1 0x24 CALLDATALOAD PUSH8 0xFFFFFFFFFFFFFFFF DUP2 GT PUSH2 0x198 JUMPI PUSH2 0x40B SWAP1 CALLDATASIZE SWAP1 PUSH1 0x4 ADD PUSH2 0x1BDD JUMP JUMPDEST SWAP2 SWAP1 DUP2 ISZERO ISZERO DUP1 PUSH2 0x704 JUMPI JUMPDEST PUSH2 0x41F SWAP1 PUSH2 0x1E33 JUMP JUMPDEST PUSH2 0x42A PUSH1 0x2 SLOAD PUSH2 0x1C6D JUMP JUMPDEST SWAP1 DUP2 PUSH1 0x2 SSTORE PUSH1 0x40 MLOAD SWAP1 PUSH2 0x43C DUP3 PUSH2 0x1869 JUMP JUMPDEST DUP3 DUP3 MSTORE PUSH2 0x459 PUSH1 0x20 DUP4 ADD SWAP2 CALLER DUP4 MSTORE PUSH1 0x40 DUP5 ADD SWAP7 DUP7 DUP9 MSTORE CALLDATASIZE SWAP2 PUSH2 0x1CFC JUMP JUMPDEST SWAP5 PUSH1 0x60 DUP4 ADD SWAP6 DUP7 MSTORE PUSH20 0xFFFFFFFFFFFFFFFFFFFFFFFFFFFFFFFFFFFFFFFF PUSH1 0x80 DUP5 ADD SWAP3 TIMESTAMP DUP5 MSTORE PUSH1 0xA0 DUP6 ADD SWAP6 PUSH1 0x0 DUP8 MSTORE PUSH1 0x0 MSTORE PUSH1 0x6 PUSH1 0x20 MSTORE PUSH1 0x40 PUSH1 0x0 KECCAK256 SWAP5 MLOAD DUP6 SSTORE MLOAD AND PUSH20 0xFFFFFFFFFFFFFFFFFFFFFFFFFFFFFFFFFFFFFFFF PUSH1 0x1 DUP6 ADD SWAP2 AND PUSH32 0xFFFFFFFFFFFFFFFFFFFFFFFF0000000000000000000000000000000000000000 DUP3 SLOAD AND OR SWAP1 SSTORE MLOAD PUSH1 0x2 DUP4 ADD SSTORE PUSH1 0x3 DUP3 ADD SWAP5 MLOAD SWAP5 DUP6 MLOAD PUSH8 0xFFFFFFFFFFFFFFFF DUP2 GT PUSH2 0x6D5 JUMPI PUSH2 0x504 DUP3 SLOAD PUSH2 0x17F9 JUMP JUMPDEST PUSH1 0x1F DUP2 GT PUSH2 0x68D JUMPI JUMPDEST POP PUSH1 0x20 PUSH1 0x1F DUP3 GT PUSH1 0x1 EQ PUSH2 0x623 JUMPI DUP2 SWAP1 PUSH1 0x5 SWAP7 SWAP8 SWAP9 PUSH1 0x0 SWAP3 PUSH2 0x618 JUMPI JUMPDEST POP POP PUSH1 0x0 NOT DUP3 PUSH1 0x1 SHL SWAP3 PUSH1 0x3 SHL SHR NOT AND OR SWAP1 SSTORE JUMPDEST MLOAD PUSH1 0x4 DUP3 ADD SSTORE ADD SWAP1 MLOAD SWAP1 PUSH1 0x2 DUP3 LT ISZERO PUSH2 0x5E9 JUMPI PUSH2 0x5AF SWAP2 PUSH1 0x40 SWAP2 PUSH1 0x0 SWAP2 PUSH1 0xFF PUSH32 0xFFFFFFFFFFFFFFFFFFFFFFFFFFFFFFFFFFFFFFFFFFFFFFFFFFFFFFFFFFFFFF00 DUP4 SLOAD AND SWAP2 AND OR SWAP1 SSTORE CALLER DUP2 MSTORE PUSH1 0x5 PUSH1 0x20 MSTORE PUSH2 0x59D DUP3 DUP3 KECCAK256 PUSH1 0x2 SLOAD SWAP1 PUSH2 0x1D43 JUMP JUMPDEST DUP4 DUP2 MSTORE PUSH1 0x7 PUSH1 0x20 MSTORE KECCAK256 PUSH1 0x2 SLOAD SWAP1 PUSH2 0x1D43 JUMP JUMPDEST PUSH1 0x2 SLOAD PUSH1 0x40 MLOAD SWAP2 DUP3 MSTORE PUSH32 0x5D0E140B7CEF2EA5088380639C54B5D796F25498BF81FB82F87069A07A8F652B PUSH1 0x20 CALLER SWAP4 LOG3 PUSH1 0x20 PUSH1 0x40 MLOAD PUSH1 0x1 DUP2 MSTORE RETURN JUMPDEST PUSH32 0x4E487B7100000000000000000000000000000000000000000000000000000000 PUSH1 0x0 MSTORE PUSH1 0x21 PUSH1 0x4 MSTORE PUSH1 0x24 PUSH1 0x0 REVERT JUMPDEST ADD MLOAD SWAP1 POP DUP9 DUP1 PUSH2 0x52A JUMP JUMPDEST PUSH1 0x1F NOT DUP3 AND SWAP8 DUP4 PUSH1 0x0 MSTORE DUP2 PUSH1 0x0 KECCAK256 SWAP9 PUSH1 0x0 JUMPDEST DUP2 DUP2 LT PUSH2 0x675 JUMPI POP SWAP2 PUSH1 0x5 SWAP8 SWAP9 SWAP10 SWAP2 DUP5 PUSH1 0x1 SWAP6 SWAP5 LT PUSH2 0x65C JUMPI JUMPDEST POP POP POP DUP2 SHL ADD SWAP1 SSTORE PUSH2 0x53E JUMP JUMPDEST ADD MLOAD PUSH1 0x0 NOT PUSH1 0xF8 DUP5 PUSH1 0x3 SHL AND SHR NOT AND SWAP1 SSTORE DUP9 DUP1 DUP1 PUSH2 0x64F JUMP JUMPDEST DUP4 DUP4 ADD MLOAD DUP12 SSTORE PUSH1 0x1 SWAP1 SWAP11 ADD SWAP10 PUSH1 0x20 SWAP4 DUP5 ADD SWAP4 ADD PUSH2 0x635 JUMP JUMPDEST DUP3 PUSH1 0x0 MSTORE PUSH1 0x20 PUSH1 0x0 KECCAK256 PUSH1 0x1F DUP4 ADD PUSH1 0x5 SHR DUP2 ADD SWAP2 PUSH1 0x20 DUP5 LT PUSH2 0x6CB JUMPI JUMPDEST PUSH1 0x1F ADD PUSH1 0x5 SHR ADD SWAP1 JUMPDEST DUP2 DUP2 LT PUSH2 0x6BF JUMPI POP PUSH2 0x50D JUMP JUMPDEST PUSH1 0x0 DUP2 SSTORE PUSH1 0x1 ADD PUSH2 0x6B2 JUMP JUMPDEST SWAP1 SWAP2 POP DUP2 SWAP1 PUSH2 0x6A9 JUMP JUMPDEST PUSH32 0x4E487B7100000000000000000000000000000000000000000000000000000000 PUSH1 0x0 MSTORE PUSH1 0x41 PUSH1 0x4 MSTORE PUSH1 0x24 PUSH1 0x0 REVERT JUMPDEST POP PUSH1 0x1 SLOAD DUP3 GT ISZERO PUSH2 0x416 JUMP JUMPDEST CALLVALUE PUSH2 0x198 JUMPI PUSH1 0x20 PUSH1 0x3 NOT CALLDATASIZE ADD SLT PUSH2 0x198 JUMPI PUSH1 0x4 CALLDATALOAD DUP1 ISZERO ISZERO DUP1 PUSH2 0x851 JUMPI JUMPDEST PUSH2 0x736 SWAP1 PUSH2 0x1E33 JUMP JUMPDEST PUSH1 0x0 MSTORE PUSH1 0x7 PUSH1 0x20 MSTORE PUSH1 0x40 PUSH1 0x0 KECCAK256 PUSH1 0x40 MLOAD DUP1 DUP3 PUSH1 0x20 DUP3 SWAP5 SLOAD SWAP4 DUP5 DUP2 MSTORE ADD SWAP1 PUSH1 0x0 MSTORE PUSH1 0x20 PUSH1 0x0 KECCAK256 SWAP3 PUSH1 0x0 JUMPDEST DUP2 DUP2 LT PUSH2 0x838 JUMPI POP POP PUSH2 0x774 SWAP3 POP SUB DUP3 PUSH2 0x1885 JUMP JUMPDEST PUSH2 0x77E DUP2 MLOAD PUSH2 0x1E98 JUMP JUMPDEST SWAP1 PUSH1 0x0 JUMPDEST DUP2 MLOAD DUP2 LT ISZERO PUSH2 0x82A JUMPI DUP1 PUSH2 0x798 PUSH1 0x1 SWAP3 DUP5 PUSH2 0x1E1F JUMP JUMPDEST MLOAD PUSH1 0x0 MSTORE PUSH1 0x6 PUSH1 0x20 MSTORE PUSH1 0x40 PUSH1 0x0 KECCAK256 PUSH2 0x80E PUSH1 0xFF PUSH1 0x5 PUSH1 0x40 MLOAD SWAP4 PUSH2 0x7BA DUP6 PUSH2 0x1869 JUMP JUMPDEST DUP1 SLOAD DUP6 MSTORE PUSH20 0xFFFFFFFFFFFFFFFFFFFFFFFFFFFFFFFFFFFFFFFF DUP8 DUP3 ADD SLOAD AND PUSH1 0x20 DUP7 ADD MSTORE PUSH1 0x2 DUP2 ADD SLOAD PUSH1 0x40 DUP7 ADD MSTORE PUSH2 0x7F3 PUSH1 0x3 DUP3 ADD PUSH2 0x18A8 JUMP JUMPDEST PUSH1 0x60 DUP7 ADD MSTORE PUSH1 0x4 DUP2 ADD SLOAD PUSH1 0x80 DUP7 ADD MSTORE ADD SLOAD AND PUSH1 0xA0 DUP4 ADD PUSH2 0x1F10 JUMP JUMPDEST PUSH2 0x818 DUP3 DUP7 PUSH2 0x1E1F JUMP JUMPDEST MSTORE PUSH2 0x823 DUP2 DUP6 PUSH2 0x1E1F JUMP JUMPDEST POP ADD PUSH2 0x782 JUMP JUMPDEST PUSH1 0x40 MLOAD DUP1 PUSH2 0x243 DUP6 DUP3 PUSH2 0x1B06 JUMP JUMPDEST DUP5 SLOAD DUP4 MSTORE PUSH1 0x1 SWAP5 DUP6 ADD SWAP5 DUP7 SWAP5 POP PUSH1 0x20 SWAP1 SWAP4 ADD SWAP3 ADD PUSH2 0x75F JUMP JUMPDEST POP PUSH1 0x1 SLOAD DUP2 GT ISZERO PUSH2 0x72D JUMP JUMPDEST CALLVALUE PUSH2 0x198 JUMPI PUSH1 0x20 PUSH1 0x3 NOT CALLDATASIZE ADD SLT PUSH2 0x198 JUMPI PUSH1 0x4 CALLDATALOAD PUSH1 0x0 MSTORE PUSH1 0x3 PUSH1 0x20 MSTORE PUSH1 0x40 PUSH1 0x0 KECCAK256 DUP1 SLOAD PUSH1 0x1 DUP3 ADD PUSH2 0x88D SWAP1 PUSH2 0x18A8 JUMP JUMPDEST SWAP2 PUSH2 0x89A PUSH1 0x2 DUP3 ADD PUSH2 0x18A8 JUMP JUMPDEST SWAP1 PUSH2 0x8A7 PUSH1 0x3 DUP3 ADD PUSH2 0x18A8 JUMP JUMPDEST PUSH2 0x8B3 PUSH1 0x4 DUP4 ADD PUSH2 0x18A8 JUMP JUMPDEST PUSH2 0x8BF PUSH1 0x5 DUP5 ADD PUSH2 0x18A8 JUMP JUMPDEST PUSH1 0x6 DUP5 ADD SLOAD PUSH20 0xFFFFFFFFFFFFFFFFFFFFFFFFFFFFFFFFFFFFFFFF AND SWAP2 PUSH2 0x8E7 PUSH1 0x7 DUP7 ADD PUSH2 0x18A8 JUMP JUMPDEST SWAP4 PUSH1 0x8 DUP7 ADD SLOAD SWAP6 PUSH1 0x9 ADD PUSH2 0x8FA SWAP1 PUSH2 0x18A8 JUMP JUMPDEST SWAP7 PUSH1 0x40 MLOAD SWAP10 DUP11 SWAP10 DUP11 MSTORE PUSH1 0x20 DUP11 ADD PUSH2 0x140 SWAP1 MSTORE PUSH2 0x140 DUP11 ADD PUSH2 0x91A SWAP2 PUSH2 0x196A JUMP JUMPDEST DUP10 DUP2 SUB PUSH1 0x40 DUP12 ADD MSTORE PUSH2 0x92B SWAP2 PUSH2 0x196A JUMP JUMPDEST DUP9 DUP2 SUB PUSH1 0x60 DUP11 ADD MSTORE PUSH2 0x93C SWAP2 PUSH2 0x196A JUMP JUMPDEST DUP8 DUP2 SUB PUSH1 0x80 DUP10 ADD MSTORE PUSH2 0x94D SWAP2 PUSH2 0x196A JUMP JUMPDEST DUP7 DUP2 SUB PUSH1 0xA0 DUP9 ADD MSTORE PUSH2 0x95E SWAP2 PUSH2 0x196A JUMP JUMPDEST SWAP1 PUSH1 0xC0 DUP7 ADD MSTORE DUP5 DUP2 SUB PUSH1 0xE0 DUP7 ADD MSTORE PUSH2 0x975 SWAP2 PUSH2 0x196A JUMP JUMPDEST SWAP1 PUSH2 0x100 DUP5 ADD MSTORE DUP3 DUP2 SUB PUSH2 0x120 DUP5 ADD MSTORE PUSH2 0x243 SWAP2 PUSH2 0x196A JUMP JUMPDEST CALLVALUE PUSH2 0x198 JUMPI PUSH1 0x0 PUSH1 0x3 NOT CALLDATASIZE ADD SLT PUSH2 0x198 JUMPI PUSH1 0x20 PUSH20 0xFFFFFFFFFFFFFFFFFFFFFFFFFFFFFFFFFFFFFFFF PUSH1 0x0 SLOAD AND PUSH1 0x40 MLOAD SWAP1 DUP2 MSTORE RETURN JUMPDEST CALLVALUE PUSH2 0x198 JUMPI PUSH1 0x0 PUSH1 0x3 NOT CALLDATASIZE ADD SLT PUSH2 0x198 JUMPI CALLER PUSH1 0x0 MSTORE PUSH1 0x5 PUSH1 0x20 MSTORE PUSH1 0x40 PUSH1 0x0 KECCAK256 PUSH1 0x40 MLOAD DUP1 DUP3 PUSH1 0x20 DUP3 SWAP5 SLOAD SWAP4 DUP5 DUP2 MSTORE ADD SWAP1 PUSH1 0x0 MSTORE PUSH1 0x20 PUSH1 0x0 KECCAK256 SWAP3 PUSH1 0x0 JUMPDEST DUP2 DUP2 LT PUSH2 0xA74 JUMPI POP POP PUSH2 0xA12 SWAP3 POP SUB DUP3 PUSH2 0x1885 JUMP JUMPDEST PUSH2 0xA1C DUP2 MLOAD PUSH2 0x1E98 JUMP JUMPDEST SWAP1 PUSH1 0x0 JUMPDEST DUP2 MLOAD DUP2 LT ISZERO PUSH2 0x82A JUMPI DUP1 PUSH2 0xA36 PUSH1 0x1 SWAP3 DUP5 PUSH2 0x1E1F JUMP JUMPDEST MLOAD PUSH1 0x0 MSTORE PUSH1 0x6 PUSH1 0x20 MSTORE PUSH1 0x40 PUSH1 0x0 KECCAK256 PUSH2 0xA58 PUSH1 0xFF PUSH1 0x5 PUSH1 0x40 MLOAD SWAP4 PUSH2 0x7BA DUP6 PUSH2 0x1869 JUMP JUMPDEST PUSH2 0xA62 DUP3 DUP7 PUSH2 0x1E1F JUMP JUMPDEST MSTORE PUSH2 0xA6D DUP2 DUP6 PUSH2 0x1E1F JUMP JUMPDEST POP ADD PUSH2 0xA20 JUMP JUMPDEST DUP5 SLOAD DUP4 MSTORE PUSH1 0x1 SWAP5 DUP6 ADD SWAP5 DUP7 SWAP5 POP PUSH1 0x20 SWAP1 SWAP4 ADD SWAP3 ADD PUSH2 0x9FD JUMP JUMPDEST CALLVALUE PUSH2 0x198 JUMPI PUSH1 0x0 PUSH1 0x3 NOT CALLDATASIZE ADD SLT PUSH2 0x198 JUMPI PUSH2 0xAA6 PUSH2 0x1F1C JUMP JUMPDEST PUSH1 0x0 PUSH20 0xFFFFFFFFFFFFFFFFFFFFFFFFFFFFFFFFFFFFFFFF DUP2 SLOAD PUSH32 0xFFFFFFFFFFFFFFFFFFFFFFFF0000000000000000000000000000000000000000 DUP2 AND DUP4 SSTORE AND PUSH32 0x8BE0079C531659141344CD1FD0A4F28419497F9722A3DAAFE3B4186F6B6457E0 DUP3 DUP1 LOG3 STOP JUMPDEST CALLVALUE PUSH2 0x198 JUMPI PUSH1 0x20 PUSH1 0x3 NOT CALLDATASIZE ADD SLT PUSH2 0x198 JUMPI PUSH1 0x4 CALLDATALOAD PUSH2 0xB27 PUSH2 0x1D83 JUMP JUMPDEST POP DUP1 ISZERO ISZERO DUP1 PUSH2 0xC11 JUMPI JUMPDEST PUSH2 0xB3A SWAP1 PUSH2 0x1E33 JUMP JUMPDEST PUSH1 0x0 MSTORE PUSH1 0x3 PUSH1 0x20 MSTORE PUSH2 0x243 PUSH1 0x40 PUSH1 0x0 KECCAK256 PUSH2 0xBF7 PUSH1 0x9 PUSH1 0x40 MLOAD SWAP3 PUSH2 0xB5C DUP5 PUSH2 0x184C JUMP JUMPDEST DUP1 SLOAD DUP5 MSTORE PUSH2 0xB6C PUSH1 0x1 DUP3 ADD PUSH2 0x18A8 JUMP JUMPDEST PUSH1 0x20 DUP6 ADD MSTORE PUSH2 0xB7D PUSH1 0x2 DUP3 ADD PUSH2 0x18A8 JUMP JUMPDEST PUSH1 0x40 DUP6 ADD MSTORE PUSH2 0xB8E PUSH1 0x3 DUP3 ADD PUSH2 0x18A8 JUMP JUMPDEST PUSH1 0x60 DUP6 ADD MSTORE PUSH2 0xB9F PUSH1 0x4 DUP3 ADD PUSH2 0x18A8 JUMP JUMPDEST PUSH1 0x80 DUP6 ADD MSTORE PUSH2 0xBB0 PUSH1 0x5 DUP3 ADD PUSH2 0x18A8 JUMP JUMPDEST PUSH1 0xA0 DUP6 ADD MSTORE PUSH20 0xFFFFFFFFFFFFFFFFFFFFFFFFFFFFFFFFFFFFFFFF PUSH1 0x6 DUP3 ADD SLOAD AND PUSH1 0xC0 DUP6 ADD MSTORE PUSH2 0xBE1 PUSH1 0x7 DUP3 ADD PUSH2 0x18A8 JUMP JUMPDEST PUSH1 0xE0 DUP6 ADD MSTORE PUSH1 0x8 DUP2 ADD SLOAD PUSH2 0x100 DUP6 ADD MSTORE ADD PUSH2 0x18A8 JUMP JUMPDEST PUSH2 0x120 DUP3 ADD MSTORE PUSH1 0x40 MLOAD SWAP2 DUP3 SWAP2 PUSH1 0x20 DUP4 MSTORE PUSH1 0x20 DUP4 ADD SWAP1 PUSH2 0x19B8 JUMP JUMPDEST POP PUSH1 0x1 SLOAD DUP2 GT ISZERO PUSH2 0xB31 JUMP JUMPDEST CALLVALUE PUSH2 0x198 JUMPI PUSH1 0x0 PUSH1 0x3 NOT CALLDATASIZE ADD SLT PUSH2 0x198 JUMPI PUSH1 0x4 SLOAD PUSH2 0xC3A DUP2 PUSH2 0x1DD0 JUMP JUMPDEST SWAP1 PUSH1 0x0 JUMPDEST DUP2 DUP2 LT PUSH2 0xC53 JUMPI PUSH1 0x40 MLOAD DUP1 PUSH2 0x243 DUP6 DUP3 PUSH2 0x1A88 JUMP JUMPDEST DUP1 PUSH2 0xC5F PUSH1 0x1 SWAP3 PUSH2 0x1C0B JUMP JUMPDEST SWAP1 SLOAD SWAP1 PUSH1 0x3 SHL SHR PUSH1 0x0 MSTORE PUSH1 0x3 PUSH1 0x20 MSTORE PUSH1 0x40 PUSH1 0x0 KECCAK256 PUSH2 0xC94 PUSH1 0x9 PUSH1 0x40 MLOAD SWAP3 PUSH2 0xC85 DUP5 PUSH2 0x184C JUMP JUMPDEST DUP1 SLOAD DUP5 MSTORE PUSH2 0xB6C DUP7 DUP3 ADD PUSH2 0x18A8 JUMP JUMPDEST PUSH2 0x120 DUP3 ADD MSTORE PUSH2 0xCA4 DUP3 DUP7 PUSH2 0x1E1F JUMP JUMPDEST MSTORE PUSH2 0xCAF DUP2 DUP6 PUSH2 0x1E1F JUMP JUMPDEST POP ADD PUSH2 0xC3E JUMP JUMPDEST CALLVALUE PUSH2 0x198 JUMPI PUSH1 0x0 PUSH1 0x3 NOT CALLDATASIZE ADD SLT PUSH2 0x198 JUMPI PUSH1 0x20 PUSH1 0x1 SLOAD PUSH1 0x40 MLOAD SWAP1 DUP2 MSTORE RETURN JUMPDEST CALLVALUE PUSH2 0x198 JUMPI PUSH1 0x0 PUSH1 0x3 NOT CALLDATASIZE ADD SLT PUSH2 0x198 JUMPI PUSH1 0x20 PUSH1 0x2 SLOAD PUSH1 0x40 MLOAD SWAP1 DUP2 MSTORE RETURN JUMPDEST CALLVALUE PUSH2 0x198 JUMPI PUSH1 0x20 PUSH1 0x3 NOT CALLDATASIZE ADD SLT PUSH2 0x198 JUMPI PUSH1 0x4 CALLDATALOAD PUSH8 0xFFFFFFFFFFFFFFFF DUP2 GT PUSH2 0x198 JUMPI PUSH2 0x140 PUSH1 0x3 NOT DUP3 CALLDATASIZE SUB ADD SLT PUSH2 0x198 JUMPI PUSH2 0xD2C PUSH2 0x1F1C JUMP JUMPDEST PUSH2 0xD37 PUSH1 0x1 SLOAD PUSH2 0x1C6D JUMP JUMPDEST DUP1 PUSH1 0x1 SSTORE PUSH2 0xD4B PUSH1 0x24 DUP4 ADD DUP4 PUSH1 0x4 ADD PUSH2 0x1CAB JUMP JUMPDEST SWAP1 PUSH1 0x80 MSTORE SWAP2 PUSH2 0xD60 PUSH1 0x44 DUP3 ADD DUP3 PUSH1 0x4 ADD PUSH2 0x1CAB JUMP JUMPDEST SWAP4 SWAP1 PUSH2 0xD72 PUSH1 0x64 DUP5 ADD DUP5 PUSH1 0x4 ADD PUSH2 0x1CAB JUMP JUMPDEST PUSH2 0xD82 PUSH1 0x84 DUP7 ADD DUP7 PUSH1 0x4 ADD PUSH2 0x1CAB JUMP JUMPDEST PUSH2 0xD95 PUSH1 0xA4 DUP9 SWAP5 SWAP4 SWAP5 ADD DUP9 PUSH1 0x4 ADD PUSH2 0x1CAB JUMP JUMPDEST SWAP3 SWAP1 PUSH1 0xC4 DUP10 ADD CALLDATALOAD SWAP6 PUSH20 0xFFFFFFFFFFFFFFFFFFFFFFFFFFFFFFFFFFFFFFFF DUP8 AND DUP1 SWAP8 SUB PUSH2 0x198 JUMPI DUP11 SWAP2 PUSH2 0xDCD PUSH1 0xE4 DUP13 ADD PUSH1 0x4 DUP14 ADD PUSH2 0x1CAB JUMP JUMPDEST SWAP8 SWAP1 SWAP3 PUSH2 0xDE1 PUSH2 0x124 DUP15 ADD PUSH1 0x4 DUP16 ADD PUSH2 0x1CAB JUMP JUMPDEST SWAP12 SWAP1 SWAP16 PUSH1 0x40 MLOAD SWAP14 DUP15 SWAP8 PUSH2 0xDF3 DUP10 PUSH2 0x184C JUMP JUMPDEST DUP9 MSTORE CALLDATASIZE PUSH1 0x80 MLOAD SWAP2 PUSH2 0xE03 SWAP3 PUSH2 0x1CFC JUMP JUMPDEST SWAP7 PUSH1 0x20 ADD SWAP7 DUP8 MSTORE CALLDATASIZE SWAP1 PUSH2 0xE15 SWAP3 PUSH2 0x1CFC JUMP JUMPDEST SWAP6 PUSH1 0x40 DUP14 ADD SWAP7 DUP8 MSTORE CALLDATASIZE SWAP1 PUSH2 0xE28 SWAP3 PUSH2 0x1CFC JUMP JUMPDEST SWAP6 PUSH1 0x60 DUP13 ADD SWAP7 DUP8 MSTORE CALLDATASIZE SWAP1 PUSH2 0xE3B SWAP3 PUSH2 0x1CFC JUMP JUMPDEST SWAP6 PUSH1 0x80 DUP12 ADD SWAP7 DUP8 MSTORE CALLDATASIZE SWAP1 PUSH2 0xE4E SWAP3 PUSH2 0x1CFC JUMP JUMPDEST SWAP6 PUSH1 0xA0 DUP11 ADD SWAP7 DUP8 MSTORE PUSH1 0xC0 DUP11 ADD SWAP8 DUP9 MSTORE CALLDATASIZE SWAP1 PUSH2 0xE68 SWAP3 PUSH2 0x1CFC JUMP JUMPDEST SWAP11 PUSH1 0xE0 DUP10 ADD SWAP12 DUP13 MSTORE PUSH2 0x100 DUP10 ADD SWAP8 TIMESTAMP DUP10 MSTORE CALLDATASIZE SWAP1 PUSH2 0xE84 SWAP3 PUSH2 0x1CFC JUMP JUMPDEST SWAP10 PUSH2 0x120 DUP10 ADD SWAP11 DUP12 MSTORE PUSH1 0x0 MSTORE PUSH1 0x3 PUSH1 0x20 MSTORE PUSH1 0x40 PUSH1 0x0 KECCAK256 SWAP8 MLOAD DUP9 SSTORE PUSH1 0x1 DUP9 ADD SWAP1 MLOAD DUP1 MLOAD SWAP1 PUSH8 0xFFFFFFFFFFFFFFFF DUP3 GT PUSH2 0x6D5 JUMPI DUP2 SWAP1 PUSH2 0xEC2 DUP5 SLOAD PUSH2 0x17F9 JUMP JUMPDEST PUSH1 0x1F DUP2 GT PUSH2 0x170F JUMPI JUMPDEST POP PUSH1 0x20 SWAP1 PUSH1 0x1F DUP4 GT PUSH1 0x1 EQ PUSH2 0x16AC JUMPI PUSH1 0x0 SWAP3 PUSH2 0x16A1 JUMPI JUMPDEST POP POP PUSH1 0x0 NOT DUP3 PUSH1 0x1 SHL SWAP3 PUSH1 0x3 SHL SHR NOT AND OR SWAP1 SSTORE JUMPDEST MLOAD DUP1 MLOAD PUSH1 0x2 DUP9 ADD SWAP2 PUSH8 0xFFFFFFFFFFFFFFFF DUP3 GT PUSH2 0x6D5 JUMPI DUP2 SWAP1 PUSH2 0xF19 DUP5 SLOAD PUSH2 0x17F9 JUMP JUMPDEST PUSH1 0x1F DUP2 GT PUSH2 0x164E JUMPI JUMPDEST POP PUSH1 0x20 SWAP1 PUSH1 0x1F DUP4 GT PUSH1 0x1 EQ PUSH2 0x15EB JUMPI PUSH1 0x0 SWAP3 PUSH2 0x15E0 JUMPI JUMPDEST POP POP PUSH1 0x0 NOT DUP3 PUSH1 0x1 SHL SWAP3 PUSH1 0x3 SHL SHR NOT AND OR SWAP1 SSTORE JUMPDEST MLOAD DUP1 MLOAD PUSH1 0x3 DUP8 ADD SWAP2 PUSH8 0xFFFFFFFFFFFFFFFF DUP3 GT PUSH2 0x6D5 JUMPI DUP2 SWAP1 PUSH2 0xF70 DUP5 SLOAD PUSH2 0x17F9 JUMP JUMPDEST PUSH1 0x1F DUP2 GT PUSH2 0x158D JUMPI JUMPDEST POP PUSH1 0x20 SWAP1 PUSH1 0x1F DUP4 GT PUSH1 0x1 EQ PUSH2 0x152A JUMPI PUSH1 0x0 SWAP3 PUSH2 0x151F JUMPI JUMPDEST POP POP PUSH1 0x0 NOT DUP3 PUSH1 0x1 SHL SWAP3 PUSH1 0x3 SHL SHR NOT AND OR SWAP1 SSTORE JUMPDEST MLOAD DUP1 MLOAD PUSH1 0x4 DUP7 ADD SWAP2 PUSH8 0xFFFFFFFFFFFFFFFF DUP3 GT PUSH2 0x6D5 JUMPI DUP2 SWAP1 PUSH2 0xFC7 DUP5 SLOAD PUSH2 0x17F9 JUMP JUMPDEST PUSH1 0x1F DUP2 GT PUSH2 0x14CC JUMPI JUMPDEST POP PUSH1 0x20 SWAP1 PUSH1 0x1F DUP4 GT PUSH1 0x1 EQ PUSH2 0x1469 JUMPI PUSH1 0x0 SWAP3 PUSH2 0x145E JUMPI JUMPDEST POP POP PUSH1 0x0 NOT DUP3 PUSH1 0x1 SHL SWAP3 PUSH1 0x3 SHL SHR NOT AND OR SWAP1 SSTORE JUMPDEST MLOAD DUP1 MLOAD PUSH1 0x5 DUP6 ADD SWAP2 PUSH8 0xFFFFFFFFFFFFFFFF DUP3 GT PUSH2 0x6D5 JUMPI PUSH2 0x101C DUP4 SLOAD PUSH2 0x17F9 JUMP JUMPDEST PUSH1 0x1F DUP2 GT PUSH2 0x1416 JUMPI JUMPDEST POP PUSH1 0x20 SWAP1 PUSH1 0x1F DUP4 GT PUSH1 0x1 EQ PUSH2 0x1398 JUMPI PUSH20 0xFFFFFFFFFFFFFFFFFFFFFFFFFFFFFFFFFFFFFFFF SWAP5 SWAP4 SWAP3 SWAP2 PUSH1 0x0 SWAP2 DUP4 PUSH2 0x138D JUMPI JUMPDEST POP POP PUSH1 0x0 NOT DUP3 PUSH1 0x1 SHL SWAP3 PUSH1 0x3 SHL SHR NOT AND OR SWAP1 SSTORE JUMPDEST MLOAD AND PUSH20 0xFFFFFFFFFFFFFFFFFFFFFFFFFFFFFFFFFFFFFFFF PUSH1 0x6 DUP5 ADD SWAP2 AND PUSH32 0xFFFFFFFFFFFFFFFFFFFFFFFF0000000000000000000000000000000000000000 DUP3 SLOAD AND OR SWAP1 SSTORE PUSH1 0x7 DUP3 ADD SWAP5 MLOAD SWAP5 DUP6 MLOAD PUSH8 0xFFFFFFFFFFFFFFFF DUP2 GT PUSH2 0x6D5 JUMPI PUSH2 0x10D0 DUP3 SLOAD PUSH2 0x17F9 JUMP JUMPDEST PUSH1 0x1F DUP2 GT PUSH2 0x1345 JUMPI JUMPDEST POP PUSH1 0x20 PUSH1 0x1F DUP3 GT PUSH1 0x1 EQ PUSH2 0x12DB JUMPI DUP2 SWAP1 PUSH1 0x9 SWAP7 SWAP8 SWAP9 PUSH1 0x0 SWAP3 PUSH2 0x12D0 JUMPI JUMPDEST POP POP PUSH1 0x0 NOT DUP3 PUSH1 0x1 SHL SWAP3 PUSH1 0x3 SHL SHR NOT AND OR SWAP1 SSTORE JUMPDEST MLOAD PUSH1 0x8 DUP3 ADD SSTORE ADD SWAP2 MLOAD SWAP2 DUP3 MLOAD PUSH8 0xFFFFFFFFFFFFFFFF DUP2 GT PUSH2 0x6D5 JUMPI PUSH2 0x112F DUP3 SLOAD PUSH2 0x17F9 JUMP JUMPDEST PUSH1 0x1F DUP2 GT PUSH2 0x1288 JUMPI JUMPDEST POP PUSH1 0x20 PUSH1 0x1F DUP3 GT PUSH1 0x1 EQ PUSH2 0x1223 JUMPI DUP2 SWAP3 SWAP4 SWAP5 PUSH1 0x0 SWAP3 PUSH2 0x1218 JUMPI JUMPDEST POP POP PUSH1 0x0 NOT DUP3 PUSH1 0x1 SHL SWAP3 PUSH1 0x3 SHL SHR NOT AND OR SWAP1 SSTORE JUMPDEST PUSH1 0x1 SLOAD PUSH1 0x4 SLOAD SWAP1 PUSH9 0x10000000000000000 DUP3 LT ISZERO PUSH2 0x6D5 JUMPI PUSH2 0x1193 DUP3 PUSH1 0x1 PUSH2 0x11AB SWAP5 ADD PUSH1 0x4 SSTORE PUSH1 0x4 PUSH2 0x1C55 JUMP JUMPDEST SWAP1 SWAP2 SWAP1 PUSH1 0x0 NOT DUP4 SLOAD SWAP2 PUSH1 0x3 SHL SWAP3 DUP4 SHL SWAP3 SHL NOT AND OR SWAP1 SSTORE JUMP JUMPDEST PUSH32 0x275F3392F5E686E72BFE6DE2EFF01A265B853FB67DDF1A4112F698A0FEAAA85D PUSH1 0x40 PUSH2 0x11E2 PUSH1 0x1 SLOAD SWAP4 PUSH1 0x24 DUP2 ADD SWAP1 PUSH1 0x4 ADD PUSH2 0x1CAB JUMP JUMPDEST SWAP2 SWAP1 PUSH1 0x1F NOT PUSH1 0x1F DUP5 DUP5 MLOAD SWAP6 DUP7 SWAP5 PUSH1 0x20 DUP7 MSTORE DUP2 PUSH1 0x20 DUP8 ADD MSTORE DUP7 DUP7 ADD CALLDATACOPY PUSH1 0x0 DUP6 DUP3 DUP7 ADD ADD MSTORE ADD AND DUP2 ADD SUB ADD SWAP1 LOG2 PUSH1 0x20 PUSH1 0x40 MLOAD PUSH1 0x1 DUP2 MSTORE RETURN JUMPDEST ADD MLOAD SWAP1 POP DUP5 DUP1 PUSH2 0x1152 JUMP JUMPDEST PUSH1 0x1F NOT DUP3 AND SWAP1 DUP4 PUSH1 0x0 MSTORE DUP1 PUSH1 0x0 KECCAK256 SWAP2 PUSH1 0x0 JUMPDEST DUP2 DUP2 LT PUSH2 0x1270 JUMPI POP SWAP6 DUP4 PUSH1 0x1 SWAP6 SWAP7 SWAP8 LT PUSH2 0x1257 JUMPI JUMPDEST POP POP POP DUP2 SHL ADD SWAP1 SSTORE PUSH2 0x1166 JUMP JUMPDEST ADD MLOAD PUSH1 0x0 NOT PUSH1 0xF8 DUP5 PUSH1 0x3 SHL AND SHR NOT AND SWAP1 SSTORE DUP5 DUP1 DUP1 PUSH2 0x124A JUMP JUMPDEST SWAP2 SWAP3 PUSH1 0x20 PUSH1 0x1 DUP2 SWAP3 DUP7 DUP12 ADD MLOAD DUP2 SSTORE ADD SWAP5 ADD SWAP3 ADD PUSH2 0x1235 JUMP JUMPDEST DUP3 PUSH1 0x0 MSTORE PUSH1 0x20 PUSH1 0x0 KECCAK256 PUSH1 0x1F DUP4 ADD PUSH1 0x5 SHR DUP2 ADD SWAP2 PUSH1 0x20 DUP5 LT PUSH2 0x12C6 JUMPI JUMPDEST PUSH1 0x1F ADD PUSH1 0x5 SHR ADD SWAP1 JUMPDEST DUP2 DUP2 LT PUSH2 0x12BA JUMPI POP PUSH2 0x1138 JUMP JUMPDEST PUSH1 0x0 DUP2 SSTORE PUSH1 0x1 ADD PUSH2 0x12AD JUMP JUMPDEST SWAP1 SWAP2 POP DUP2 SWAP1 PUSH2 0x12A4 JUMP JUMPDEST ADD MLOAD SWAP1 POP DUP9 DUP1 PUSH2 0x10F6 JUMP JUMPDEST PUSH1 0x1F NOT DUP3 AND SWAP8 DUP4 PUSH1 0x0 MSTORE DUP2 PUSH1 0x0 KECCAK256 SWAP9 PUSH1 0x0 JUMPDEST DUP2 DUP2 LT PUSH2 0x132D JUMPI POP SWAP2 PUSH1 0x9 SWAP8 SWAP9 SWAP10 SWAP2 DUP5 PUSH1 0x1 SWAP6 SWAP5 LT PUSH2 0x1314 JUMPI JUMPDEST POP POP POP DUP2 SHL ADD SWAP1 SSTORE PUSH2 0x110A JUMP JUMPDEST ADD MLOAD PUSH1 0x0 NOT PUSH1 0xF8 DUP5 PUSH1 0x3 SHL AND SHR NOT AND SWAP1 SSTORE DUP9 DUP1 DUP1 PUSH2 0x1307 JUMP JUMPDEST DUP4 DUP4 ADD MLOAD DUP12 SSTORE PUSH1 0x1 SWAP1 SWAP11 ADD SWAP10 PUSH1 0x20 SWAP4 DUP5 ADD SWAP4 ADD PUSH2 0x12ED JUMP JUMPDEST DUP3 PUSH1 0x0 MSTORE PUSH1 0x20 PUSH1 0x0 KECCAK256 PUSH1 0x1F DUP4 ADD PUSH1 0x5 SHR DUP2 ADD SWAP2 PUSH1 0x20 DUP5 LT PUSH2 0x1383 JUMPI JUMPDEST PUSH1 0x1F ADD PUSH1 0x5 SHR ADD SWAP1 JUMPDEST DUP2 DUP2 LT PUSH2 0x1377 JUMPI POP PUSH2 0x10D9 JUMP JUMPDEST PUSH1 0x0 DUP2 SSTORE PUSH1 0x1 ADD PUSH2 0x136A JUMP JUMPDEST SWAP1 SWAP2 POP DUP2 SWAP1 PUSH2 0x1361 JUMP JUMPDEST ADD MLOAD SWAP1 POP DUP11 DUP1 PUSH2 0x1056 JUMP JUMPDEST SWAP1 PUSH1 0x1F NOT DUP4 AND SWAP2 DUP5 PUSH1 0x0 MSTORE DUP2 PUSH1 0x0 KECCAK256 SWAP3 PUSH1 0x0 JUMPDEST DUP2 DUP2 LT PUSH2 0x13FE JUMPI POP SWAP2 PUSH1 0x1 SWAP4 SWAP2 DUP6 PUSH20 0xFFFFFFFFFFFFFFFFFFFFFFFFFFFFFFFFFFFFFFFF SWAP9 SWAP8 SWAP7 SWAP5 LT PUSH2 0x13E5 JUMPI JUMPDEST POP POP POP DUP2 SHL ADD SWAP1 SSTORE PUSH2 0x106A JUMP JUMPDEST ADD MLOAD PUSH1 0x0 NOT PUSH1 0xF8 DUP5 PUSH1 0x3 SHL AND SHR NOT AND SWAP1 SSTORE DUP11 DUP1 DUP1 PUSH2 0x13D8 JUMP JUMPDEST SWAP3 SWAP4 PUSH1 0x20 PUSH1 0x1 DUP2 SWAP3 DUP8 DUP7 ADD MLOAD DUP2 SSTORE ADD SWAP6 ADD SWAP4 ADD PUSH2 0x13AB JUMP JUMPDEST DUP4 PUSH1 0x0 MSTORE PUSH1 0x20 PUSH1 0x0 KECCAK256 PUSH1 0x1F DUP5 ADD PUSH1 0x5 SHR DUP2 ADD SWAP2 PUSH1 0x20 DUP6 LT PUSH2 0x1454 JUMPI JUMPDEST PUSH1 0x1F ADD PUSH1 0x5 SHR ADD SWAP1 JUMPDEST DUP2 DUP2 LT PUSH2 0x1448 JUMPI POP PUSH2 0x1025 JUMP JUMPDEST PUSH1 0x0 DUP2 SSTORE PUSH1 0x1 ADD PUSH2 0x143B JUMP JUMPDEST SWAP1 SWAP2 POP DUP2 SWAP1 PUSH2 0x1432 JUMP JUMPDEST ADD MLOAD SWAP1 POP DUP11 DUP1 PUSH2 0xFE7 JUMP JUMPDEST PUSH1 0x0 DUP6 DUP2 MSTORE DUP3 DUP2 KECCAK256 SWAP4 PUSH1 0x1F NOT AND SWAP1 JUMPDEST DUP2 DUP2 LT PUSH2 0x14B4 JUMPI POP SWAP1 DUP5 PUSH1 0x1 SWAP6 SWAP5 SWAP4 SWAP3 LT PUSH2 0x149B JUMPI JUMPDEST POP POP POP DUP2 SHL ADD SWAP1 SSTORE PUSH2 0xFFB JUMP JUMPDEST ADD MLOAD PUSH1 0x0 NOT PUSH1 0xF8 DUP5 PUSH1 0x3 SHL AND SHR NOT AND SWAP1 SSTORE DUP11 DUP1 DUP1 PUSH2 0x148E JUMP JUMPDEST SWAP3 SWAP4 PUSH1 0x20 PUSH1 0x1 DUP2 SWAP3 DUP8 DUP7 ADD MLOAD DUP2 SSTORE ADD SWAP6 ADD SWAP4 ADD PUSH2 0x1478 JUMP JUMPDEST SWAP1 SWAP2 POP DUP4 PUSH1 0x0 MSTORE PUSH1 0x20 PUSH1 0x0 KECCAK256 PUSH1 0x1F DUP5 ADD PUSH1 0x5 SHR DUP2 ADD SWAP2 PUSH1 0x20 DUP6 LT PUSH2 0x1515 JUMPI JUMPDEST SWAP1 PUSH1 0x1F DUP6 SWAP5 SWAP4 SWAP3 ADD PUSH1 0x5 SHR ADD SWAP1 JUMPDEST DUP2 DUP2 LT PUSH2 0x1506 JUMPI POP PUSH2 0xFD0 JUMP JUMPDEST PUSH1 0x0 DUP2 SSTORE DUP5 SWAP4 POP PUSH1 0x1 ADD PUSH2 0x14F9 JUMP JUMPDEST SWAP1 SWAP2 POP DUP2 SWAP1 PUSH2 0x14EB JUMP JUMPDEST ADD MLOAD SWAP1 POP DUP12 DUP1 PUSH2 0xF90 JUMP JUMPDEST PUSH1 0x0 DUP6 DUP2 MSTORE DUP3 DUP2 KECCAK256 SWAP4 PUSH1 0x1F NOT AND SWAP1 JUMPDEST DUP2 DUP2 LT PUSH2 0x1575 JUMPI POP SWAP1 DUP5 PUSH1 0x1 SWAP6 SWAP5 SWAP4 SWAP3 LT PUSH2 0x155C JUMPI JUMPDEST POP POP POP DUP2 SHL ADD SWAP1 SSTORE PUSH2 0xFA4 JUMP JUMPDEST ADD MLOAD PUSH1 0x0 NOT PUSH1 0xF8 DUP5 PUSH1 0x3 SHL AND SHR NOT AND SWAP1 SSTORE DUP12 DUP1 DUP1 PUSH2 0x154F JUMP JUMPDEST SWAP3 SWAP4 PUSH1 0x20 PUSH1 0x1 DUP2 SWAP3 DUP8 DUP7 ADD MLOAD DUP2 SSTORE ADD SWAP6 ADD SWAP4 ADD PUSH2 0x1539 JUMP JUMPDEST SWAP1 SWAP2 POP DUP4 PUSH1 0x0 MSTORE PUSH1 0x20 PUSH1 0x0 KECCAK256 PUSH1 0x1F DUP5 ADD PUSH1 0x5 SHR DUP2 ADD SWAP2 PUSH1 0x20 DUP6 LT PUSH2 0x15D6 JUMPI JUMPDEST SWAP1 PUSH1 0x1F DUP6 SWAP5 SWAP4 SWAP3 ADD PUSH1 0x5 SHR ADD SWAP1 JUMPDEST DUP2 DUP2 LT PUSH2 0x15C7 JUMPI POP PUSH2 0xF79 JUMP JUMPDEST PUSH1 0x0 DUP2 SSTORE DUP5 SWAP4 POP PUSH1 0x1 ADD PUSH2 0x15BA JUMP JUMPDEST SWAP1 SWAP2 POP DUP2 SWAP1 PUSH2 0x15AC JUMP JUMPDEST ADD MLOAD SWAP1 POP DUP13 DUP1 PUSH2 0xF39 JUMP JUMPDEST PUSH1 0x0 DUP6 DUP2 MSTORE DUP3 DUP2 KECCAK256 SWAP4 PUSH1 0x1F NOT AND SWAP1 JUMPDEST DUP2 DUP2 LT PUSH2 0x1636 JUMPI POP SWAP1 DUP5 PUSH1 0x1 SWAP6 SWAP5 SWAP4 SWAP3 LT PUSH2 0x161D JUMPI JUMPDEST POP POP POP DUP2 SHL ADD SWAP1 SSTORE PUSH2 0xF4D JUMP JUMPDEST ADD MLOAD PUSH1 0x0 NOT PUSH1 0xF8 DUP5 PUSH1 0x3 SHL AND SHR NOT AND SWAP1 SSTORE DUP13 DUP1 DUP1 PUSH2 0x1610 JUMP JUMPDEST SWAP3 SWAP4 PUSH1 0x20 PUSH1 0x1 DUP2 SWAP3 DUP8 DUP7 ADD MLOAD DUP2 SSTORE ADD SWAP6 ADD SWAP4 ADD PUSH2 0x15FA JUMP JUMPDEST SWAP1 SWAP2 POP DUP4 PUSH1 0x0 MSTORE PUSH1 0x20 PUSH1 0x0 KECCAK256 PUSH1 0x1F DUP5 ADD PUSH1 0x5 SHR DUP2 ADD SWAP2 PUSH1 0x20 DUP6 LT PUSH2 0x1697 JUMPI JUMPDEST SWAP1 PUSH1 0x1F DUP6 SWAP5 SWAP4 SWAP3 ADD PUSH1 0x5 SHR ADD SWAP1 JUMPDEST DUP2 DUP2 LT PUSH2 0x1688 JUMPI POP PUSH2 0xF22 JUMP JUMPDEST PUSH1 0x0 DUP2 SSTORE DUP5 SWAP4 POP PUSH1 0x1 ADD PUSH2 0x167B JUMP JUMPDEST SWAP1 SWAP2 POP DUP2 SWAP1 PUSH2 0x166D JUMP JUMPDEST ADD MLOAD SWAP1 POP DUP14 DUP1 PUSH2 0xEE2 JUMP JUMPDEST PUSH1 0x0 DUP6 DUP2 MSTORE DUP3 DUP2 KECCAK256 SWAP4 PUSH1 0x1F NOT AND SWAP1 JUMPDEST DUP2 DUP2 LT PUSH2 0x16F7 JUMPI POP SWAP1 DUP5 PUSH1 0x1 SWAP6 SWAP5 SWAP4 SWAP3 LT PUSH2 0x16DE JUMPI JUMPDEST POP POP POP DUP2 SHL ADD SWAP1 SSTORE PUSH2 0xEF6 JUMP JUMPDEST ADD MLOAD PUSH1 0x0 NOT PUSH1 0xF8 DUP5 PUSH1 0x3 SHL AND SHR NOT AND SWAP1 SSTORE DUP14 DUP1 DUP1 PUSH2 0x16D1 JUMP JUMPDEST SWAP3 SWAP4 PUSH1 0x20 PUSH1 0x1 DUP2 SWAP3 DUP8 DUP7 ADD MLOAD DUP2 SSTORE ADD SWAP6 ADD SWAP4 ADD PUSH2 0x16BB JUMP JUMPDEST SWAP1 SWAP2 POP DUP4 PUSH1 0x0 MSTORE PUSH1 0x20 PUSH1 0x0 KECCAK256 PUSH1 0x1F DUP5 ADD PUSH1 0x5 SHR DUP2 ADD SWAP2 PUSH1 0x20 DUP6 LT PUSH2 0x1758 JUMPI JUMPDEST SWAP1 PUSH1 0x1F DUP6 SWAP5 SWAP4 SWAP3 ADD PUSH1 0x5 SHR ADD SWAP1 JUMPDEST DUP2 DUP2 LT PUSH2 0x1749 JUMPI POP PUSH2 0xECB JUMP JUMPDEST PUSH1 0x0 DUP2 SSTORE DUP5 SWAP4 POP PUSH1 0x1 ADD PUSH2 0x173C JUMP JUMPDEST SWAP1 SWAP2 POP DUP2 SWAP1 PUSH2 0x172E JUMP JUMPDEST CALLVALUE PUSH2 0x198 JUMPI PUSH1 0x20 PUSH1 0x3 NOT CALLDATASIZE ADD SLT PUSH2 0x198 JUMPI PUSH1 0x4 CALLDATALOAD PUSH1 0x0 MSTORE PUSH1 0x6 PUSH1 0x20 MSTORE PUSH1 0x40 PUSH1 0x0 KECCAK256 DUP1 SLOAD PUSH20 0xFFFFFFFFFFFFFFFFFFFFFFFFFFFFFFFFFFFFFFFF PUSH1 0x1 DUP4 ADD SLOAD AND SWAP2 PUSH2 0x243 PUSH1 0x2 DUP3 ADD SLOAD PUSH2 0x17E9 PUSH2 0x17B8 PUSH1 0x3 DUP6 ADD PUSH2 0x18A8 JUMP JUMPDEST PUSH1 0xFF PUSH1 0x5 PUSH1 0x4 DUP8 ADD SLOAD SWAP7 ADD SLOAD AND SWAP3 PUSH1 0x40 MLOAD SWAP8 DUP9 SWAP8 DUP9 MSTORE PUSH1 0x20 DUP9 ADD MSTORE PUSH1 0x40 DUP8 ADD MSTORE PUSH1 0xC0 PUSH1 0x60 DUP8 ADD MSTORE PUSH1 0xC0 DUP7 ADD SWAP1 PUSH2 0x196A JUMP JUMPDEST SWAP3 PUSH1 0x80 DUP6 ADD MSTORE PUSH1 0xA0 DUP5 ADD SWAP1 PUSH2 0x19AB JUMP JUMPDEST SWAP1 PUSH1 0x1 DUP3 DUP2 SHR SWAP3 AND DUP1 ISZERO PUSH2 0x1842 JUMPI JUMPDEST PUSH1 0x20 DUP4 LT EQ PUSH2 0x1813 JUMPI JUMP JUMPDEST PUSH32 0x4E487B7100000000000000000000000000000000000000000000000000000000 PUSH1 0x0 MSTORE PUSH1 0x22 PUSH1 0x4 MSTORE PUSH1 0x24 PUSH1 0x0 REVERT JUMPDEST SWAP2 PUSH1 0x7F AND SWAP2 PUSH2 0x1808 JUMP JUMPDEST PUSH2 0x140 DUP2 ADD SWAP1 DUP2 LT PUSH8 0xFFFFFFFFFFFFFFFF DUP3 GT OR PUSH2 0x6D5 JUMPI PUSH1 0x40 MSTORE JUMP JUMPDEST PUSH1 0xC0 DUP2 ADD SWAP1 DUP2 LT PUSH8 0xFFFFFFFFFFFFFFFF DUP3 GT OR PUSH2 0x6D5 JUMPI PUSH1 0x40 MSTORE JUMP JUMPDEST SWAP1 PUSH1 0x1F PUSH1 0x1F NOT SWAP2 ADD AND DUP2 ADD SWAP1 DUP2 LT PUSH8 0xFFFFFFFFFFFFFFFF DUP3 GT OR PUSH2 0x6D5 JUMPI PUSH1 0x40 MSTORE JUMP JUMPDEST SWAP1 PUSH1 0x40 MLOAD SWAP2 DUP3 PUSH1 0x0 DUP3 SLOAD SWAP3 PUSH2 0x18BC DUP5 PUSH2 0x17F9 JUMP JUMPDEST DUP1 DUP5 MSTORE SWAP4 PUSH1 0x1 DUP2 AND SWAP1 DUP2 ISZERO PUSH2 0x192A JUMPI POP PUSH1 0x1 EQ PUSH2 0x18E3 JUMPI JUMPDEST POP PUSH2 0x18E1 SWAP3 POP SUB DUP4 PUSH2 0x1885 JUMP JUMPDEST JUMP JUMPDEST SWAP1 POP PUSH1 0x0 SWAP3 SWAP2 SWAP3 MSTORE PUSH1 0x20 PUSH1 0x0 KECCAK256 SWAP1 PUSH1 0x0 SWAP2 JUMPDEST DUP2 DUP4 LT PUSH2 0x190E JUMPI POP POP SWAP1 PUSH1 0x20 PUSH2 0x18E1 SWAP3 DUP3 ADD ADD CODESIZE PUSH2 0x18D4 JUMP JUMPDEST PUSH1 0x20 SWAP2 SWAP4 POP DUP1 PUSH1 0x1 SWAP2 SLOAD DUP4 DUP6 DUP10 ADD ADD MSTORE ADD SWAP2 ADD SWAP1 SWAP2 DUP5 SWAP3 PUSH2 0x18F5 JUMP JUMPDEST PUSH1 0x20 SWAP4 POP PUSH2 0x18E1 SWAP6 SWAP3 POP PUSH32 0xFFFFFFFFFFFFFFFFFFFFFFFFFFFFFFFFFFFFFFFFFFFFFFFFFFFFFFFFFFFFFF00 SWAP2 POP AND DUP3 DUP5 ADD MSTORE ISZERO ISZERO PUSH1 0x5 SHL DUP3 ADD ADD CODESIZE PUSH2 0x18D4 JUMP JUMPDEST SWAP2 SWAP1 DUP3 MLOAD SWAP3 DUP4 DUP3 MSTORE PUSH1 0x0 JUMPDEST DUP5 DUP2 LT PUSH2 0x1996 JUMPI POP POP PUSH1 0x1F NOT PUSH1 0x1F DUP5 PUSH1 0x0 PUSH1 0x20 DUP1 SWAP7 SWAP8 DUP7 ADD ADD MSTORE ADD AND ADD ADD SWAP1 JUMP JUMPDEST DUP1 PUSH1 0x20 DUP1 SWAP3 DUP5 ADD ADD MLOAD DUP3 DUP3 DUP7 ADD ADD MSTORE ADD PUSH2 0x1975 JUMP JUMPDEST SWAP1 PUSH1 0x2 DUP3 LT ISZERO PUSH2 0x5E9 JUMPI MSTORE JUMP JUMPDEST PUSH2 0x1A85 SWAP2 DUP2 MLOAD DUP2 MSTORE PUSH2 0x120 PUSH2 0x1A67 PUSH2 0x1A35 PUSH2 0x1A23 PUSH2 0x1A11 PUSH2 0x19FF PUSH2 0x19ED PUSH1 0x20 DUP10 ADD MLOAD PUSH2 0x140 PUSH1 0x20 DUP11 ADD MSTORE PUSH2 0x140 DUP10 ADD SWAP1 PUSH2 0x196A JUMP JUMPDEST PUSH1 0x40 DUP10 ADD MLOAD DUP9 DUP3 SUB PUSH1 0x40 DUP11 ADD MSTORE PUSH2 0x196A JUMP JUMPDEST PUSH1 0x60 DUP9 ADD MLOAD DUP8 DUP3 SUB PUSH1 0x60 DUP10 ADD MSTORE PUSH2 0x196A JUMP JUMPDEST PUSH1 0x80 DUP8 ADD MLOAD DUP7 DUP3 SUB PUSH1 0x80 DUP9 ADD MSTORE PUSH2 0x196A JUMP JUMPDEST PUSH1 0xA0 DUP7 ADD MLOAD DUP6 DUP3 SUB PUSH1 0xA0 DUP8 ADD MSTORE PUSH2 0x196A JUMP JUMPDEST PUSH20 0xFFFFFFFFFFFFFFFFFFFFFFFFFFFFFFFFFFFFFFFF PUSH1 0xC0 DUP7 ADD MLOAD AND PUSH1 0xC0 DUP6 ADD MSTORE PUSH1 0xE0 DUP6 ADD MLOAD DUP5 DUP3 SUB PUSH1 0xE0 DUP7 ADD MSTORE PUSH2 0x196A JUMP JUMPDEST SWAP3 PUSH2 0x100 DUP2 ADD MLOAD PUSH2 0x100 DUP5 ADD MSTORE ADD MLOAD SWAP1 PUSH2 0x120 DUP2 DUP5 SUB SWAP2 ADD MSTORE PUSH2 0x196A JUMP JUMPDEST SWAP1 JUMP JUMPDEST PUSH1 0x20 DUP2 ADD PUSH1 0x20 DUP3 MSTORE DUP3 MLOAD DUP1 SWAP2 MSTORE PUSH1 0x40 DUP3 ADD SWAP2 PUSH1 0x20 PUSH1 0x40 DUP4 PUSH1 0x5 SHL DUP4 ADD ADD SWAP5 ADD SWAP3 PUSH1 0x0 SWAP2 JUMPDEST DUP4 DUP4 LT PUSH2 0x1ABB JUMPI POP POP POP POP POP SWAP1 JUMP JUMPDEST SWAP1 SWAP2 SWAP3 SWAP4 SWAP5 PUSH1 0x20 DUP1 PUSH2 0x1AF7 DUP4 PUSH32 0xFFFFFFFFFFFFFFFFFFFFFFFFFFFFFFFFFFFFFFFFFFFFFFFFFFFFFFFFFFFFFFC0 DUP7 PUSH1 0x1 SWAP7 SUB ADD DUP8 MSTORE DUP10 MLOAD PUSH2 0x19B8 JUMP JUMPDEST SWAP8 ADD SWAP4 ADD SWAP4 ADD SWAP2 SWAP4 SWAP3 SWAP1 PUSH2 0x1AAC JUMP JUMPDEST PUSH1 0x20 DUP2 ADD PUSH1 0x20 DUP3 MSTORE DUP3 MLOAD DUP1 SWAP2 MSTORE PUSH1 0x40 DUP3 ADD SWAP2 PUSH1 0x20 PUSH1 0x40 DUP4 PUSH1 0x5 SHL DUP4 ADD ADD SWAP5 ADD SWAP3 PUSH1 0x0 SWAP2 JUMPDEST DUP4 DUP4 LT PUSH2 0x1B39 JUMPI POP POP POP POP POP SWAP1 JUMP JUMPDEST SWAP1 SWAP2 SWAP3 SWAP4 SWAP5 PUSH1 0x20 DUP1 DUP3 PUSH32 0xFFFFFFFFFFFFFFFFFFFFFFFFFFFFFFFFFFFFFFFFFFFFFFFFFFFFFFFFFFFFFFC0 DUP6 PUSH1 0x1 SWAP6 SUB ADD DUP7 MSTORE PUSH2 0x1BCE DUP10 MLOAD SWAP2 DUP3 MLOAD DUP2 MSTORE PUSH20 0xFFFFFFFFFFFFFFFFFFFFFFFFFFFFFFFFFFFFFFFF DUP5 DUP5 ADD MLOAD AND DUP5 DUP3 ADD MSTORE PUSH1 0x40 DUP4 ADD MLOAD PUSH1 0x40 DUP3 ADD MSTORE PUSH1 0xA0 DUP1 PUSH2 0x1BB9 PUSH1 0x60 DUP7 ADD MLOAD PUSH1 0xC0 PUSH1 0x60 DUP7 ADD MSTORE PUSH1 0xC0 DUP6 ADD SWAP1 PUSH2 0x196A JUMP JUMPDEST SWAP5 PUSH1 0x80 DUP2 ADD MLOAD PUSH1 0x80 DUP6 ADD MSTORE ADD MLOAD SWAP2 ADD SWAP1 PUSH2 0x19AB JUMP JUMPDEST SWAP8 ADD SWAP4 ADD SWAP4 ADD SWAP2 SWAP4 SWAP3 SWAP1 PUSH2 0x1B2A JUMP JUMPDEST SWAP2 DUP2 PUSH1 0x1F DUP5 ADD SLT ISZERO PUSH2 0x198 JUMPI DUP3 CALLDATALOAD SWAP2 PUSH8 0xFFFFFFFFFFFFFFFF DUP4 GT PUSH2 0x198 JUMPI PUSH1 0x20 DUP4 DUP2 DUP7 ADD SWAP6 ADD ADD GT PUSH2 0x198 JUMPI JUMP JUMPDEST PUSH1 0x4 SLOAD DUP2 LT ISZERO PUSH2 0x1C26 JUMPI PUSH1 0x4 PUSH1 0x0 MSTORE PUSH1 0x20 PUSH1 0x0 KECCAK256 ADD SWAP1 PUSH1 0x0 SWAP1 JUMP JUMPDEST PUSH32 0x4E487B7100000000000000000000000000000000000000000000000000000000 PUSH1 0x0 MSTORE PUSH1 0x32 PUSH1 0x4 MSTORE PUSH1 0x24 PUSH1 0x0 REVERT JUMPDEST DUP1 SLOAD DUP3 LT ISZERO PUSH2 0x1C26 JUMPI PUSH1 0x0 MSTORE PUSH1 0x20 PUSH1 0x0 KECCAK256 ADD SWAP1 PUSH1 0x0 SWAP1 JUMP JUMPDEST PUSH1 0x0 NOT DUP2 EQ PUSH2 0x1C7C JUMPI PUSH1 0x1 ADD SWAP1 JUMP JUMPDEST PUSH32 0x4E487B7100000000000000000000000000000000000000000000000000000000 PUSH1 0x0 MSTORE PUSH1 0x11 PUSH1 0x4 MSTORE PUSH1 0x24 PUSH1 0x0 REVERT JUMPDEST SWAP1 CALLDATALOAD SWAP1 PUSH32 0xFFFFFFFFFFFFFFFFFFFFFFFFFFFFFFFFFFFFFFFFFFFFFFFFFFFFFFFFFFFFFFE1 DUP2 CALLDATASIZE SUB ADD DUP3 SLT ISZERO PUSH2 0x198 JUMPI ADD DUP1 CALLDATALOAD SWAP1 PUSH8 0xFFFFFFFFFFFFFFFF DUP3 GT PUSH2 0x198 JUMPI PUSH1 0x20 ADD SWAP2 DUP2 CALLDATASIZE SUB DUP4 SGT PUSH2 0x198 JUMPI JUMP JUMPDEST SWAP3 SWAP2 SWAP3 PUSH8 0xFFFFFFFFFFFFFFFF DUP3 GT PUSH2 0x6D5 JUMPI PUSH1 0x40 MLOAD SWAP2 PUSH2 0x1D26 PUSH1 0x20 PUSH1 0x1F NOT PUSH1 0x1F DUP5 ADD AND ADD DUP5 PUSH2 0x1885 JUMP JUMPDEST DUP3 SWAP5 DUP2 DUP5 MSTORE DUP2 DUP4 ADD GT PUSH2 0x198 JUMPI DUP3 DUP2 PUSH1 0x20 SWAP4 DUP5 PUSH1 0x0 SWAP7 ADD CALLDATACOPY ADD ADD MSTORE JUMP JUMPDEST SWAP1 DUP2 SLOAD SWAP2 PUSH9 0x10000000000000000 DUP4 LT ISZERO PUSH2 0x6D5 JUMPI DUP3 PUSH2 0x1193 SWAP2 PUSH1 0x1 PUSH2 0x18E1 SWAP6 ADD DUP2 SSTORE PUSH2 0x1C55 JUMP JUMPDEST PUSH8 0xFFFFFFFFFFFFFFFF DUP2 GT PUSH2 0x6D5 JUMPI PUSH1 0x5 SHL PUSH1 0x20 ADD SWAP1 JUMP JUMPDEST PUSH1 0x40 MLOAD SWAP1 PUSH2 0x1D90 DUP3 PUSH2 0x184C JUMP JUMPDEST PUSH1 0x60 PUSH2 0x120 DUP4 PUSH1 0x0 DUP2 MSTORE DUP3 PUSH1 0x20 DUP3 ADD MSTORE DUP3 PUSH1 0x40 DUP3 ADD MSTORE DUP3 DUP1 DUP3 ADD MSTORE DUP3 PUSH1 0x80 DUP3 ADD MSTORE DUP3 PUSH1 0xA0 DUP3 ADD MSTORE PUSH1 0x0 PUSH1 0xC0 DUP3 ADD MSTORE DUP3 PUSH1 0xE0 DUP3 ADD MSTORE PUSH1 0x0 PUSH2 0x100 DUP3 ADD MSTORE ADD MSTORE JUMP JUMPDEST SWAP1 PUSH2 0x1DDA DUP3 PUSH2 0x1D6B JUMP JUMPDEST PUSH2 0x1DE7 PUSH1 0x40 MLOAD SWAP2 DUP3 PUSH2 0x1885 JUMP JUMPDEST DUP3 DUP2 MSTORE PUSH1 0x1F NOT PUSH2 0x1DF7 DUP3 SWAP5 PUSH2 0x1D6B JUMP JUMPDEST ADD SWAP1 PUSH1 0x0 JUMPDEST DUP3 DUP2 LT PUSH2 0x1E08 JUMPI POP POP POP JUMP JUMPDEST PUSH1 0x20 SWAP1 PUSH2 0x1E13 PUSH2 0x1D83 JUMP JUMPDEST DUP3 DUP3 DUP6 ADD ADD MSTORE ADD PUSH2 0x1DFC JUMP JUMPDEST DUP1 MLOAD DUP3 LT ISZERO PUSH2 0x1C26 JUMPI PUSH1 0x20 SWAP2 PUSH1 0x5 SHL ADD ADD SWAP1 JUMP JUMPDEST ISZERO PUSH2 0x1E3A JUMPI JUMP JUMPDEST PUSH1 0x64 PUSH1 0x40 MLOAD PUSH32 0x8C379A000000000000000000000000000000000000000000000000000000000 DUP2 MSTORE PUSH1 0x20 PUSH1 0x4 DUP3 ADD MSTORE PUSH1 0x13 PUSH1 0x24 DUP3 ADD MSTORE PUSH32 0x496E76616C6964206F6666696369616C20494400000000000000000000000000 PUSH1 0x44 DUP3 ADD MSTORE REVERT JUMPDEST SWAP1 PUSH2 0x1EA2 DUP3 PUSH2 0x1D6B JUMP JUMPDEST PUSH2 0x1EAF PUSH1 0x40 MLOAD SWAP2 DUP3 PUSH2 0x1885 JUMP JUMPDEST DUP3 DUP2 MSTORE PUSH1 0x1F NOT PUSH2 0x1EBF DUP3 SWAP5 PUSH2 0x1D6B JUMP JUMPDEST ADD SWAP1 PUSH1 0x0 JUMPDEST DUP3 DUP2 LT PUSH2 0x1ED0 JUMPI POP POP POP JUMP JUMPDEST PUSH1 0x20 SWAP1 PUSH1 0x40 MLOAD PUSH2 0x1EDF DUP2 PUSH2 0x1869 JUMP JUMPDEST PUSH1 0x0 DUP2 MSTORE PUSH1 0x0 DUP4 DUP3 ADD MSTORE PUSH1 0x0 PUSH1 0x40 DUP3 ADD MSTORE PUSH1 0x60 DUP1 DUP3 ADD MSTORE PUSH1 0x0 PUSH1 0x80 DUP3 ADD MSTORE PUSH1 0x0 PUSH1 0xA0 DUP3 ADD MSTORE DUP3 DUP3 DUP6 ADD ADD MSTORE ADD PUSH2 0x1EC4 JUMP JUMPDEST PUSH1 0x2 DUP3 LT ISZERO PUSH2 0x5E9 JUMPI MSTORE JUMP JUMPDEST PUSH20 0xFFFFFFFFFFFFFFFFFFFFFFFFFFFFFFFFFFFFFFFF PUSH1 0x0 SLOAD AND CALLER SUB PUSH2 0x1F3D JUMPI JUMP JUMPDEST PUSH32 0x118CDAA700000000000000000000000000000000000000000000000000000000 PUSH1 0x0 MSTORE CALLER PUSH1 0x4 MSTORE PUSH1 0x24 PUSH1 0x0 REVERT JUMPDEST SWAP1 DUP2 MLOAD DUP2 LT ISZERO PUSH2 0x1C26 JUMPI ADD PUSH1 0x20 ADD SWAP1 JUMP JUMPDEST SWAP1 DUP2 MLOAD DUP1 ISZERO PUSH2 0x2055 JUMPI DUP2 MLOAD DUP1 ISZERO PUSH2 0x2064 JUMPI GT PUSH2 0x205D JUMPI PUSH1 0x0 SWAP1 JUMPDEST DUP3 MLOAD DUP2 MLOAD DUP2 SUB SWAP1 DUP2 GT PUSH2 0x1C7C JUMPI DUP3 GT PUSH2 0x2055 JUMPI PUSH1 0x1 SWAP3 PUSH1 0x0 JUMPDEST DUP3 MLOAD DUP2 LT ISZERO PUSH2 0x204B JUMPI DUP1 DUP5 ADD DUP1 DUP6 GT PUSH2 0x1C7C JUMPI PUSH2 0x1FED PUSH32 0xFF00000000000000000000000000000000000000000000000000000000000000 SWAP2 DUP5 PUSH2 0x1F6B JUMP JUMPDEST MLOAD AND PUSH32 0xFF00000000000000000000000000000000000000000000000000000000000000 PUSH2 0x201A DUP4 DUP7 PUSH2 0x1F6B JUMP JUMPDEST MLOAD AND SUB PUSH2 0x2029 JUMPI PUSH1 0x1 ADD PUSH2 0x1FAF JUMP JUMPDEST POP SWAP3 POP SWAP1 PUSH1 0x0 JUMPDEST PUSH2 0x2043 JUMPI PUSH2 0x203D SWAP1 PUSH2 0x1C6D JUMP JUMPDEST SWAP1 PUSH2 0x1F96 JUMP JUMPDEST POP POP POP PUSH1 0x1 SWAP1 JUMP JUMPDEST POP SWAP3 SWAP2 SWAP1 SWAP2 PUSH2 0x2030 JUMP JUMPDEST POP POP POP PUSH1 0x0 SWAP1 JUMP JUMPDEST POP POP PUSH1 0x0 SWAP1 JUMP JUMPDEST POP POP POP POP PUSH1 0x0 SWAP1 JUMP INVALID LOG2 PUSH5 0x6970667358 0x22 SLT KECCAK256 AND 0xCC 0x26 0xC LT 0xE7 0xD4 JUMPDEST MCOPY SWAP4 0xF8 PUSH17 0x763991F569B431012561A38811DA792DBB 0xAC CODECOPY PUSH30 0x64736F6C634300081C003300000000000000000000000000000000000000 "},"methodIdentifiers":{"addOfficial((uint256,string,string,string,string,string,address,string,uint256,string))":"260f6137","getMessageHistory()":"75abf685","getOfficialDetails(uint256)":"663b653d","getOfficialMessages(uint256)":"99e410d8","getOfficials()":"58bc7331","messageCount()":"3dbcc8d1","messages(uint256)":"0d80fefd","officialCount()":"45b91ded","officialIds(uint256)":"c2e43fe6","officials(uint256)":"97ad6afd","owner()":"8da5cb5b","renounceOwnership()":"715018a6","searchOfficials(string)":"b2823487","sendMessage(uint256,string)":"aae8b592","transferOwnership(address)":"f2fde38b"}}}}}